{
  "_format": "hh-sol-artifact-1",
  "contractName": "RecurChainAgent",
  "sourceName": "contracts/RecurChainAgent.sol",
  "abi": [
    {
      "inputs": [
        {
          "internalType": "address",
          "name": "_usdcToken",
          "type": "address"
        },
        {
          "internalType": "address",
          "name": "_feeCollector",
          "type": "address"
        }
      ],
      "stateMutability": "nonpayable",
      "type": "constructor"
    },
    {
      "inputs": [],
      "name": "AgentNotActive",
      "type": "error"
    },
    {
      "inputs": [],
      "name": "AgentNotFound",
      "type": "error"
    },
    {
      "inputs": [],
      "name": "EnforcedPause",
      "type": "error"
    },
    {
      "inputs": [],
      "name": "ExpectedPause",
      "type": "error"
    },
    {
      "inputs": [],
      "name": "FeeTooHigh",
      "type": "error"
    },
    {
      "inputs": [],
      "name": "InvalidAmount",
      "type": "error"
    },
    {
      "inputs": [],
      "name": "InvalidName",
      "type": "error"
    },
    {
      "inputs": [],
      "name": "InvalidRecipient",
      "type": "error"
    },
    {
      "inputs": [],
      "name": "InvalidStartDate",
      "type": "error"
    },
    {
      "inputs": [],
      "name": "NotAgentOwner",
      "type": "error"
    },
    {
      "inputs": [
        {
          "internalType": "address",
          "name": "owner",
          "type": "address"
        }
      ],
      "name": "OwnableInvalidOwner",
      "type": "error"
    },
    {
      "inputs": [
        {
          "internalType": "address",
          "name": "account",
          "type": "address"
        }
      ],
      "name": "OwnableUnauthorizedAccount",
      "type": "error"
    },
    {
      "inputs": [],
      "name": "ReentrancyGuardReentrantCall",
      "type": "error"
    },
    {
      "inputs": [],
      "name": "TooEarlyToExecute",
      "type": "error"
    },
    {
      "inputs": [],
      "name": "TransferFailed",
      "type": "error"
    },
    {
      "inputs": [],
      "name": "ZeroAddress",
      "type": "error"
    },
    {
      "anonymous": false,
      "inputs": [
        {
          "indexed": true,
          "internalType": "uint256",
          "name": "agentId",
          "type": "uint256"
        },
        {
          "indexed": true,
          "internalType": "address",
          "name": "user",
          "type": "address"
        }
      ],
      "name": "AgentCancelled",
      "type": "event"
    },
    {
      "anonymous": false,
      "inputs": [
        {
          "indexed": true,
          "internalType": "uint256",
          "name": "agentId",
          "type": "uint256"
        },
        {
          "indexed": true,
          "internalType": "address",
          "name": "owner",
          "type": "address"
        },
        {
          "indexed": false,
          "internalType": "string",
          "name": "name",
          "type": "string"
        },
        {
          "indexed": false,
          "internalType": "enum DataTypes.AgentType",
          "name": "agentType",
          "type": "uint8"
        },
        {
          "indexed": false,
          "internalType": "enum DataTypes.Frequency",
          "name": "frequency",
          "type": "uint8"
        },
        {
          "indexed": false,
          "internalType": "uint256",
          "name": "amount",
          "type": "uint256"
        }
      ],
      "name": "AgentCreated",
      "type": "event"
    },
    {
      "anonymous": false,
      "inputs": [
        {
          "indexed": true,
          "internalType": "uint256",
          "name": "agentId",
          "type": "uint256"
        }
      ],
      "name": "AgentPaused",
      "type": "event"
    },
    {
      "anonymous": false,
      "inputs": [
        {
          "indexed": true,
          "internalType": "uint256",
          "name": "agentId",
          "type": "uint256"
        }
      ],
      "name": "AgentResumed",
      "type": "event"
    },
    {
      "anonymous": false,
      "inputs": [
        {
          "indexed": true,
          "internalType": "uint256",
          "name": "agentId",
          "type": "uint256"
        },
        {
          "indexed": true,
          "internalType": "address",
          "name": "user",
          "type": "address"
        },
        {
          "indexed": false,
          "internalType": "string",
          "name": "name",
          "type": "string"
        },
        {
          "indexed": false,
          "internalType": "uint256",
          "name": "amount",
          "type": "uint256"
        },
        {
          "indexed": false,
          "internalType": "enum DataTypes.Frequency",
          "name": "frequency",
          "type": "uint8"
        }
      ],
      "name": "AgentUpdated",
      "type": "event"
    },
    {
      "anonymous": false,
      "inputs": [
        {
          "indexed": false,
          "internalType": "address",
          "name": "newCollector",
          "type": "address"
        }
      ],
      "name": "FeeCollectorUpdated",
      "type": "event"
    },
    {
      "anonymous": false,
      "inputs": [
        {
          "indexed": true,
          "internalType": "address",
          "name": "previousOwner",
          "type": "address"
        },
        {
          "indexed": true,
          "internalType": "address",
          "name": "newOwner",
          "type": "address"
        }
      ],
      "name": "OwnershipTransferred",
      "type": "event"
    },
    {
      "anonymous": false,
      "inputs": [
        {
          "indexed": false,
          "internalType": "address",
          "name": "account",
          "type": "address"
        }
      ],
      "name": "Paused",
      "type": "event"
    },
    {
      "anonymous": false,
      "inputs": [
        {
          "indexed": true,
          "internalType": "uint256",
          "name": "agentId",
          "type": "uint256"
        },
        {
          "indexed": true,
          "internalType": "address",
          "name": "recipient",
          "type": "address"
        },
        {
          "indexed": false,
          "internalType": "uint256",
          "name": "amount",
          "type": "uint256"
        },
        {
          "indexed": false,
          "internalType": "uint256",
          "name": "timestamp",
          "type": "uint256"
        }
      ],
      "name": "PaymentExecuted",
      "type": "event"
    },
    {
      "anonymous": false,
      "inputs": [
        {
          "indexed": false,
          "internalType": "uint256",
          "name": "newFee",
          "type": "uint256"
        }
      ],
      "name": "PlatformFeeUpdated",
      "type": "event"
    },
    {
      "anonymous": false,
      "inputs": [
        {
          "indexed": false,
          "internalType": "address",
          "name": "account",
          "type": "address"
        }
      ],
      "name": "Unpaused",
      "type": "event"
    },
    {
      "inputs": [],
      "name": "agentCounter",
      "outputs": [
        {
          "internalType": "uint256",
          "name": "",
          "type": "uint256"
        }
      ],
      "stateMutability": "view",
      "type": "function"
    },
    {
      "inputs": [
        {
          "internalType": "uint256",
          "name": "",
          "type": "uint256"
        },
        {
          "internalType": "uint256",
          "name": "",
          "type": "uint256"
        }
      ],
      "name": "agentPayments",
      "outputs": [
        {
          "internalType": "uint256",
          "name": "agentId",
          "type": "uint256"
        },
        {
          "internalType": "address",
          "name": "recipient",
          "type": "address"
        },
        {
          "internalType": "uint256",
          "name": "amount",
          "type": "uint256"
        },
        {
          "internalType": "uint256",
          "name": "timestamp",
          "type": "uint256"
        },
        {
          "internalType": "bytes32",
          "name": "txHash",
          "type": "bytes32"
        }
      ],
      "stateMutability": "view",
      "type": "function"
    },
    {
      "inputs": [
        {
          "internalType": "uint256",
          "name": "",
          "type": "uint256"
        }
      ],
      "name": "agents",
      "outputs": [
        {
          "internalType": "address",
          "name": "owner",
          "type": "address"
        },
        {
          "internalType": "string",
          "name": "name",
          "type": "string"
        },
        {
          "internalType": "enum DataTypes.AgentType",
          "name": "agentType",
          "type": "uint8"
        },
        {
          "internalType": "string",
          "name": "description",
          "type": "string"
        },
        {
          "internalType": "address",
          "name": "recipient",
          "type": "address"
        },
        {
          "internalType": "uint256",
          "name": "amount",
          "type": "uint256"
        },
        {
          "internalType": "enum DataTypes.Frequency",
          "name": "frequency",
          "type": "uint8"
        },
        {
          "internalType": "uint256",
          "name": "startDate",
          "type": "uint256"
        },
        {
          "internalType": "uint256",
          "name": "nextExecutionTime",
          "type": "uint256"
        },
        {
          "internalType": "bool",
          "name": "isActive",
          "type": "bool"
        },
        {
          "internalType": "uint256",
          "name": "executionCount",
          "type": "uint256"
        },
        {
          "internalType": "uint256",
          "name": "totalPaid",
          "type": "uint256"
        },
        {
          "internalType": "uint256",
          "name": "createdAt",
          "type": "uint256"
        }
      ],
      "stateMutability": "view",
      "type": "function"
    },
    {
      "inputs": [
        {
          "internalType": "uint256",
          "name": "agentId",
          "type": "uint256"
        }
      ],
      "name": "cancelAgent",
      "outputs": [],
      "stateMutability": "nonpayable",
      "type": "function"
    },
    {
      "inputs": [
        {
          "internalType": "string",
          "name": "_name",
          "type": "string"
        },
        {
          "internalType": "enum DataTypes.AgentType",
          "name": "_agentType",
          "type": "uint8"
        },
        {
          "internalType": "string",
          "name": "_description",
          "type": "string"
        },
        {
          "internalType": "address",
          "name": "_recipient",
          "type": "address"
        },
        {
          "internalType": "uint256",
          "name": "_amount",
          "type": "uint256"
        },
        {
          "internalType": "enum DataTypes.Frequency",
          "name": "_frequency",
          "type": "uint8"
        },
        {
          "internalType": "uint256",
          "name": "_startDate",
          "type": "uint256"
        }
      ],
      "name": "createAgent",
      "outputs": [
        {
          "internalType": "uint256",
          "name": "",
          "type": "uint256"
        }
      ],
      "stateMutability": "nonpayable",
      "type": "function"
    },
    {
      "inputs": [
        {
          "internalType": "uint256",
          "name": "agentId",
          "type": "uint256"
        }
      ],
      "name": "executePayment",
      "outputs": [],
      "stateMutability": "nonpayable",
      "type": "function"
    },
    {
      "inputs": [],
      "name": "feeCollector",
      "outputs": [
        {
          "internalType": "address",
          "name": "",
          "type": "address"
        }
      ],
      "stateMutability": "view",
      "type": "function"
    },
    {
      "inputs": [
        {
          "internalType": "uint256",
          "name": "agentId",
          "type": "uint256"
        }
      ],
      "name": "getAgent",
      "outputs": [
        {
          "internalType": "address",
          "name": "owner",
          "type": "address"
        },
        {
          "internalType": "string",
          "name": "name",
          "type": "string"
        },
        {
          "internalType": "enum DataTypes.AgentType",
          "name": "agentType",
          "type": "uint8"
        },
        {
          "internalType": "string",
          "name": "description",
          "type": "string"
        },
        {
          "internalType": "address",
          "name": "recipient",
          "type": "address"
        },
        {
          "internalType": "uint256",
          "name": "amount",
          "type": "uint256"
        },
        {
          "internalType": "enum DataTypes.Frequency",
          "name": "frequency",
          "type": "uint8"
        },
        {
          "internalType": "uint256",
          "name": "startDate",
          "type": "uint256"
        },
        {
          "internalType": "uint256",
          "name": "nextExecutionTime",
          "type": "uint256"
        },
        {
          "internalType": "bool",
          "name": "isActive",
          "type": "bool"
        },
        {
          "internalType": "uint256",
          "name": "executionCount",
          "type": "uint256"
        },
        {
          "internalType": "uint256",
          "name": "totalPaid",
          "type": "uint256"
        }
      ],
      "stateMutability": "view",
      "type": "function"
    },
    {
      "inputs": [
        {
          "internalType": "uint256",
          "name": "agentId",
          "type": "uint256"
        }
      ],
      "name": "getAgentPayments",
      "outputs": [
        {
          "components": [
            {
              "internalType": "uint256",
              "name": "agentId",
              "type": "uint256"
            },
            {
              "internalType": "address",
              "name": "recipient",
              "type": "address"
            },
            {
              "internalType": "uint256",
              "name": "amount",
              "type": "uint256"
            },
            {
              "internalType": "uint256",
              "name": "timestamp",
              "type": "uint256"
            },
            {
              "internalType": "bytes32",
              "name": "txHash",
              "type": "bytes32"
            }
          ],
          "internalType": "struct DataTypes.Payment[]",
          "name": "",
          "type": "tuple[]"
        }
      ],
      "stateMutability": "view",
      "type": "function"
    },
    {
      "inputs": [
        {
          "internalType": "uint256",
          "name": "agentId",
          "type": "uint256"
        }
      ],
      "name": "getAgentSummary",
      "outputs": [
        {
          "internalType": "string",
          "name": "name",
          "type": "string"
        },
        {
          "internalType": "uint256",
          "name": "amount",
          "type": "uint256"
        },
        {
          "internalType": "string",
          "name": "frequencyStr",
          "type": "string"
        },
        {
          "internalType": "address",
          "name": "recipient",
          "type": "address"
        },
        {
          "internalType": "uint256",
          "name": "nextRun",
          "type": "uint256"
        },
        {
          "internalType": "bool",
          "name": "isActive",
          "type": "bool"
        }
      ],
      "stateMutability": "view",
      "type": "function"
    },
    {
      "inputs": [
        {
          "internalType": "address",
          "name": "user",
          "type": "address"
        }
      ],
      "name": "getUserAgents",
      "outputs": [
        {
          "internalType": "uint256[]",
          "name": "",
          "type": "uint256[]"
        }
      ],
      "stateMutability": "view",
      "type": "function"
    },
    {
      "inputs": [
        {
          "internalType": "uint256",
          "name": "agentId",
          "type": "uint256"
        }
      ],
      "name": "isAgentReadyForExecution",
      "outputs": [
        {
          "internalType": "bool",
          "name": "",
          "type": "bool"
        }
      ],
      "stateMutability": "view",
      "type": "function"
    },
    {
      "inputs": [],
      "name": "owner",
      "outputs": [
        {
          "internalType": "address",
          "name": "",
          "type": "address"
        }
      ],
      "stateMutability": "view",
      "type": "function"
    },
    {
      "inputs": [],
      "name": "pause",
      "outputs": [],
      "stateMutability": "nonpayable",
      "type": "function"
    },
    {
      "inputs": [
        {
          "internalType": "uint256",
          "name": "agentId",
          "type": "uint256"
        }
      ],
      "name": "pauseAgent",
      "outputs": [],
      "stateMutability": "nonpayable",
      "type": "function"
    },
    {
      "inputs": [],
      "name": "paused",
      "outputs": [
        {
          "internalType": "bool",
          "name": "",
          "type": "bool"
        }
      ],
      "stateMutability": "view",
      "type": "function"
    },
    {
      "inputs": [],
      "name": "platformFee",
      "outputs": [
        {
          "internalType": "uint256",
          "name": "",
          "type": "uint256"
        }
      ],
      "stateMutability": "view",
      "type": "function"
    },
    {
      "inputs": [],
      "name": "renounceOwnership",
      "outputs": [],
      "stateMutability": "nonpayable",
      "type": "function"
    },
    {
      "inputs": [
        {
          "internalType": "uint256",
          "name": "agentId",
          "type": "uint256"
        }
      ],
      "name": "resumeAgent",
      "outputs": [],
      "stateMutability": "nonpayable",
      "type": "function"
    },
    {
      "inputs": [
        {
          "internalType": "address",
          "name": "newOwner",
          "type": "address"
        }
      ],
      "name": "transferOwnership",
      "outputs": [],
      "stateMutability": "nonpayable",
      "type": "function"
    },
    {
      "inputs": [],
      "name": "unpause",
      "outputs": [],
      "stateMutability": "nonpayable",
      "type": "function"
    },
    {
      "inputs": [
        {
          "internalType": "uint256",
          "name": "agentId",
          "type": "uint256"
        },
        {
          "internalType": "string",
          "name": "_name",
          "type": "string"
        },
        {
          "internalType": "string",
          "name": "_description",
          "type": "string"
        },
        {
          "internalType": "uint256",
          "name": "_amount",
          "type": "uint256"
        },
        {
          "internalType": "enum DataTypes.Frequency",
          "name": "_frequency",
          "type": "uint8"
        },
        {
          "internalType": "address",
          "name": "_recipient",
          "type": "address"
        },
        {
          "internalType": "uint256",
          "name": "_startDate",
          "type": "uint256"
        }
      ],
      "name": "updateAgent",
      "outputs": [],
      "stateMutability": "nonpayable",
      "type": "function"
    },
    {
      "inputs": [
        {
          "internalType": "address",
          "name": "_newCollector",
          "type": "address"
        }
      ],
      "name": "updateFeeCollector",
      "outputs": [],
      "stateMutability": "nonpayable",
      "type": "function"
    },
    {
      "inputs": [
        {
          "internalType": "uint256",
          "name": "_newFee",
          "type": "uint256"
        }
      ],
      "name": "updatePlatformFee",
      "outputs": [],
      "stateMutability": "nonpayable",
      "type": "function"
    },
    {
      "inputs": [],
      "name": "usdcToken",
      "outputs": [
        {
          "internalType": "contract IERC20",
          "name": "",
          "type": "address"
        }
      ],
      "stateMutability": "view",
      "type": "function"
    },
    {
      "inputs": [
        {
          "internalType": "address",
          "name": "",
          "type": "address"
        },
        {
          "internalType": "uint256",
          "name": "",
          "type": "uint256"
        }
      ],
      "name": "userAgents",
      "outputs": [
        {
          "internalType": "uint256",
          "name": "",
          "type": "uint256"
        }
      ],
      "stateMutability": "view",
      "type": "function"
    }
  ],
  "bytecode": "0x60a034620000ff57601f620020d738819003918201601f19168301916001600160401b0383118484101762000104578084926040948552833981010312620000ff576200005a602062000052836200011a565b92016200011a565b3315620000e65760008054336001600160a01b0319808316821784556040519590946001600160a01b03949093859391908416907f8be0079c531659141344cd1fd0a4f28419497f9722a3daafe3b4186f6b6457e09080a360018055600a6007551660805216906008541617600855611fa790816200013082396080518181816116c4015261199b0152f35b604051631e4fbdf760e01b815260006004820152602490fd5b600080fd5b634e487b7160e01b600052604160045260246000fd5b51906001600160a01b0382168203620000ff5756fe608080604052600436101561001357600080fd5b60003560e01c90816301a7c7ed146119ca5750806311eac85514611985578063162a0cf81461161a57806326232a2e146115fc5780632bd4fd001461154a5780632de5aaf71461142f5780633d46519d1461137b5780633f4ba83a1461131157806349392ab11461129b578063513856c81461116d57806351ca9ff9146111155780635c975abb146110f257806367c7ba39146110d45780636ac1898714611062578063715018a6146110095780638456cb5914610faf5780638ac05be214610a725780638da5cb5b14610a4957806395b5636b1461062b578063aa0b5988146105cd578063ba4704ff1461049a578063bf7c7d3214610425578063c415b95c146103fc578063d2c35ce81461037d578063f2fde38b146102f45763f78dd2411461013d57600080fd5b346102ef5760203660031901126102ef576004358060005260038060205260018060a01b03806040600020541633036102dd5782600052816020526000600c60408220928354169282815561019460018201611dda565b8260028201556101a5858201611dda565b82600482015582600582015582600682015582600782015582600882015582600982015582600a82015582600b8201550155600052600560205260406000209081549160005b83811061021c575b33857fca0737b4cbabe00ec82851c3d171ebe81ab22aac06f31c5e13f612482b7384cd600080a3005b846102278284611be4565b905490851b1c146102405761023b90611c7f565b6101eb565b909192600019918282019182116102c75761026e6102616102879386611be4565b905490871b1c9185611be4565b90919082549060031b91821b91600019901b1916179055565b815480156102b15781019261029c8484611be4565b81939154921b1b1916905555388080806101f3565b634e487b7160e01b600052603160045260246000fd5b634e487b7160e01b600052601160045260246000fd5b604051630e41dcbf60e21b8152600490fd5b600080fd5b346102ef5760203660031901126102ef5761030d611a72565b610315611c53565b6001600160a01b0390811690811561036457600054826001600160601b0360a01b821617600055167f8be0079c531659141344cd1fd0a4f28419497f9722a3daafe3b4186f6b6457e0600080a3005b604051631e4fbdf760e01b815260006004820152602490fd5b346102ef5760203660031901126102ef57610396611a72565b61039e611c53565b6001600160a01b031680156103c5576001600160601b0360a01b6008541617600855600080f35b60405162461bcd60e51b815260206004820152600f60248201526e496e76616c6964206164647265737360881b6044820152606490fd5b346102ef5760003660031901126102ef576008546040516001600160a01b039091168152602090f35b346102ef5760203660031901126102ef576004356000818152600360205260409020546001600160a01b031633036102dd578060005260036020526009604060002001600160ff198254161790557f62637348b7e22ec324516e93125a967308efd1559b84d505bf18e582255b2053600080a2005b346102ef576020806003193601126102ef5760043560005260048152604060002090815467ffffffffffffffff81116105b7576040519060056104e18483831b0184611bc2565b8183528383018095600052846000206000915b84831061056757604080518881528751818a018190528a928201908a60005b8281106105205784840385f35b855180518552808301516001600160a01b0316858401526040808201519086015260608082015190860152608090810151908501529481019460a090930192600101610513565b838760019260405161057881611b8a565b85548152848060a01b038587015416838201526002860154604082015260038601546060820152600486015460808201528152019201920191906104f4565b634e487b7160e01b600052604160045260246000fd5b346102ef5760203660031901126102ef576004356105e9611c53565b6101f481116105f757600755005b60405162461bcd60e51b815260206004820152600c60248201526b08ccaca40e8dede40d0d2ced60a31b6044820152606490fd5b346102ef5760e03660031901126102ef5767ffffffffffffffff6004356024358281116102ef57610660903690600401611bfc565b916044358181116102ef57610679903690600401611bfc565b60843560068110156102ef576001600160a01b039460a435868116908190036102ef5760c4359486600052602097600389526040600020541633036102dd57866000526003885260406000209460ff60098701541615610a375760009380518061093e575b50508051908161083d575b50505060643580610832575b5080610817575b5060068301918060ff84541661071182611a52565b61071a81611a52565b03610804575b50836107bc575b7f56a26aa0ddf2e8773d894b84cf8f90ea5d41333e3868da172cbaf7b068d27ff2935061078c575b60ff60058301549154169061077260405193606085526001606086019101611af4565b9583015261077f81611a52565b60408201528033940390a3005b600a8201546107a4576007820154600883015561074f565b6107b260ff82541642611d00565b600883015561074f565b504283106107f2577f56a26aa0ddf2e8773d894b84cf8f90ea5d41333e3868da172cbaf7b068d27ff29260078301556001610727565b604051630bf784c760e01b8152600490fd5b61080f915082611ca5565b600186610720565b6004840180546001600160a01b0319169091179055866106fc565b6005850155876106f5565b600387019282116105b75781906108548454611aba565b8b601f8211610902575b50508a90601f831160011461089d57600092610892575b50508160011b916000199060031b1c19161790555b8780806106e9565b015190508a80610875565b60008581528c81209350601f198516905b8d8282106108ec5750509084600195949392106108d3575b505050811b01905561088a565b015160001960f88460031b161c191690558a80806108c6565b60018596829396860151815501950193016108ae565b61092d91866000528160002090601f860160051c8201928610610934575b601f0160051c0190611c8e565b8b8b61085e565b9091508190610920565b60018801918482116105b75781906109568454611aba565b8d601f8211610a06575b50508c908d601f84116001146109a05750600092610995575b50508160011b916000199060031b1c19161790555b89806106de565b015190508c80610979565b60008681528181209450601f198616915b8282106109ee5750509084600195949392106109d5575b505050811b01905561098e565b015160001960f88460031b161c191690558c80806109c8565b806001869782949787015181550196019401906109b1565b610a3091866000528160002090601f860160051c820192861061093457601f0160051c0190611c8e565b8d8d610960565b604051632437e77160e11b8152600490fd5b346102ef5760003660031901126102ef576000546040516001600160a01b039091168152602090f35b346102ef5760e03660031901126102ef5760043567ffffffffffffffff81116102ef57610aa3903690600401611bfc565b600660243510156102ef5760443567ffffffffffffffff81116102ef57610ace903690600401611bfc565b606435906001600160a01b03821682036102ef57600660a43510156102ef57610af5611cbd565b825115610f9d576001600160a01b03821615610f8b5760843515610f79574260c435106107f257610b27600654611c7f565b9182600655604051916101a0830183811067ffffffffffffffff8211176105b757604052338352846020840152610b5f602435611a52565b602435604084015260608301526001600160a01b0316608082015260843560a0820152610b8d60a435611a52565b60a43560c082015260c43560e082015260c4356101008201526001610120820152600061014082015260006101608201524261018082015281600052600360205260406000209060018060a01b038151166001600160601b0360a01b835416178255602081015180519067ffffffffffffffff82116105b7578190610c156001860154611aba565b601f8111610f44575b50602090601f8311600114610ed257600092610ec7575b50508160011b916000199060031b1c19161760018301555b6040810151610c5b81611a52565b610c6481611a52565b60ff80196002850154169116176002830155606081015180519067ffffffffffffffff82116105b757610c9a6003850154611aba565b601f8111610e92575b50602090601f8311600114610e1c579180600c949261018094600092610e11575b50508160011b916000199060031b1c19161760038501555b6004840160018060a01b036080830151166001600160601b0360a01b82541617905560a08101516005850155610d2260c0820151610d1981611a52565b60068601611ca5565b60e08101516007850155610100810151600885015560098401610120820151151560ff80198354169116179055610140810151600a850155610160810151600b8501550151910155336000526005602052604060002091825492600160401b8410156105b7578261026e85610d9e936001602098018155611be4565b817f3f2bc73d296d889f39a6fa23784ee04c8ae02d6e7d058dbade830a3a0e10282d610dd560405193608085526080850190611a12565b92610de1602435611a52565b60243586820152610df360a435611a52565b60a435604082015260843560608201528033940390a3604051908152f35b015190508880610cc4565b906003850160005260206000209160005b601f1985168110610e7a575092600c94926001926101809583601f19811610610e61575b505050811b016003850155610cdc565b015160001960f88460031b161c19169055888080610e51565b91926020600181928685015181550194019201610e2d565b610ec190600386016000526020600020601f850160051c8101916020861061093457601f0160051c0190611c8e565b86610ca3565b015190508680610c35565b9250600185016000526020600020906000935b601f1984168510610f29576001945083601f19811610610f10575b505050811b016001830155610c4d565b015160001960f88460031b161c19169055868080610f00565b81810151835560209485019460019093019290910190610ee5565b610f7390600187016000526020600020601f850160051c8101916020861061093457601f0160051c0190611c8e565b87610c1e565b60405163162908e360e11b8152600490fd5b604051634e46966960e11b8152600490fd5b60405163430f13b360e01b8152600490fd5b346102ef5760003660031901126102ef57610fc8611c53565b610fd0611cbd565b600160ff1960025416176002557f62e78cea01bee320cd4e420270b5ea74000d11b0c9f74754ebdbfc544b05a2586020604051338152a1005b346102ef5760003660031901126102ef57611022611c53565b600080546001600160a01b0319811682556001600160a01b03167f8be0079c531659141344cd1fd0a4f28419497f9722a3daafe3b4186f6b6457e08280a3005b346102ef5760203660031901126102ef576004356000818152600360205260409020546001600160a01b031633036102dd57806000526003602052600960406000200160ff1981541690557f5561eb580af870fbf8b9a0506a6ebe92e64c9182edba8560cac1bab55b908a94600080a2005b346102ef5760003660031901126102ef576020600654604051908152f35b346102ef5760003660031901126102ef57602060ff600254166040519015158152f35b346102ef5760403660031901126102ef5761112e611a72565b6001600160a01b03166000908152600560205260409020805460243591908210156102ef5760209161115f91611be4565b90546040519160031b1c8152f35b346102ef5760203660031901126102ef576004356000908152600360205260409081902080549151916001600160a01b0390811691836111b08160018401611af4565b036111bb9085611bc2565b600281015460ff169060405192838060038401906111d891611af4565b036111e39085611bc2565b600482015416926005820154600683015460ff166007840154600885015491600986015460ff1693600a87015495600b88015497600c0154986040519c8d9c8d528c6101a06020819201528d0161123991611a12565b9061124381611a52565b60408d01528b810360608d015261125991611a12565b9860808b015260a08a015261126d81611a52565b60c089015260e088015261010087015215156101208601526101408501526101608401526101808301520390f35b346102ef5760403660031901126102ef576024356004356000526004602052604060002080548210156102ef5760a0916112d491611a88565b50805490600180841b0360018201541690600281015460046003830154920154926040519485526020850152604084015260608301526080820152f35b346102ef5760003660031901126102ef5761132a611c53565b60025460ff8116156113695760ff19166002557f5db9ee0a495bf2e6ff9c91a7834c1ba4fdd244a5e8aa4e537bd38aeae4b073aa6020604051338152a1005b604051638dfc202b60e01b8152600490fd5b346102ef576020806003193601126102ef576001600160a01b0361139d611a72565b1660005260058152604060002060405190818382549182815201908192600052846000209060005b8682821061141b5786866113db82880383611bc2565b604051928392818401908285525180915260408401929160005b82811061140457505050500390f35b8351855286955093810193928101926001016113f5565b8354855290930192600192830192016113c5565b346102ef5760203660031901126102ef5760043560005260036020526114be604060002060018060a01b03808254169160ff6002820154169160048201541691600582015460ff600684015416600784015460088501549160ff6009870154169361150e600a8801549660036114d5600b8b01549a6040519e8f806114b78160018601611af4565b0390611bc2565b6114ce6040518094819301611af4565b0382611bc2565b6114f26040519d8e9d8e528d610180908160208201520190611a12565b916114fc81611a52565b60408d01528b820360608d0152611a12565b9760808a015260a089015261152281611a52565b60c088015260e087015261010086015215156101208501526101408401526101608301520390f35b346102ef5760203660031901126102ef5760043560005260036020526115d36001604060002060058101549061158660ff600683015416611e46565b6115e6848060a01b03600484015416936008840154926115bf60ff600987015416956115b8604051809a819301611af4565b0388611bc2565b60405197889760c0895260c0890190611a12565b9160208801528682036040880152611a12565b9260608501526080840152151560a08301520390f35b346102ef5760003660031901126102ef576020600754604051908152f35b346102ef576020806003193601126102ef57600435600260015414611973576002600155611646611cbd565b8060005260038252604060002060ff60098201541615610a37576008810190815442106119615760058101546007548082029082820414821517156102c75761271090046116948183611cdb565b83546040516323b872dd60e01b81526001600160a01b0391821660048201523060248201526044810192909252917f000000000000000000000000000000000000000000000000000000000000000083169188816064816000875af190811561191b57600091611944575b50156118dc57600485019183835416916040518a81806117438a63a9059cbb60e01b988984526004840160209093929193604081019460018060a01b031681520152565b03816000875af190811561191b57600091611927575b50156118dc57899181611891575b505050508560005260048752604060002094828254166000194301954387116102c7576040519661179788611b8a565b8988528a880192835260408801978789526060810199428b5260808201924083528054600160401b8110156105b7576117d591600182018155611a88565b92909261187b577fcd19bb5d0157296d4f7382afb5c2308f7413979d682b76af1d187c8bd78b1c359a60409a611865966004945186558a600187019151166001600160601b0360a01b82541617905551600285015551600384015551910155600a81016118428154611c7f565b9055600b8101611853878254611cdb565b905560ff600684549201541690611d00565b905554169482519182524290820152a360018055005b634e487b7160e01b600052600060045260246000fd5b60085460405194855286166001600160a01b031660048501526024840191909152829060449082906000905af190811561191b576000916118ee575b50156118dc5787878180611767565b6040516312171d8360e31b8152600490fd5b61190e9150883d8a11611914575b6119068183611bc2565b810190611ce8565b886118cd565b503d6118fc565b6040513d6000823e3d90fd5b61193e91508b3d8d11611914576119068183611bc2565b8b611759565b61195b9150893d8b11611914576119068183611bc2565b896116ff565b60405163e65e683360e01b8152600490fd5b604051633ee5aeb560e01b8152600490fd5b346102ef5760003660031901126102ef576040517f00000000000000000000000000000000000000000000000000000000000000006001600160a01b03168152602090f35b346102ef5760203660031901126102ef5760209060043560005260038252604060002060ff6009820154169081611a03575b5015158152f35b600891500154421015836119fc565b919082519283825260005b848110611a3e575050826000602080949584010152601f8019910116010190565b602081830181015184830182015201611a1d565b60061115611a5c57565b634e487b7160e01b600052602160045260246000fd5b600435906001600160a01b03821682036102ef57565b8054821015611aa4576000526005602060002091020190600090565b634e487b7160e01b600052603260045260246000fd5b90600182811c92168015611aea575b6020831014611ad457565b634e487b7160e01b600052602260045260246000fd5b91607f1691611ac9565b9060009291805491611b0583611aba565b918282526001938481169081600014611b675750600114611b27575b50505050565b90919394506000526020928360002092846000945b838610611b53575050505001019038808080611b21565b805485870183015294019385908201611b3c565b9294505050602093945060ff191683830152151560051b01019038808080611b21565b60a0810190811067ffffffffffffffff8211176105b757604052565b6040810190811067ffffffffffffffff8211176105b757604052565b90601f8019910116810190811067ffffffffffffffff8211176105b757604052565b8054821015611aa45760005260206000200190600090565b81601f820112156102ef5780359067ffffffffffffffff82116105b75760405192611c31601f8401601f191660200185611bc2565b828452602083830101116102ef57816000926020809301838601378301015290565b6000546001600160a01b03163303611c6757565b60405163118cdaa760e01b8152336004820152602490fd5b60001981146102c75760010190565b818110611c99575050565b60008155600101611c8e565b90611caf81611a52565b60ff80198354169116179055565b60ff60025416611cc957565b60405163d93c066560e01b8152600490fd5b919082018092116102c757565b908160209103126102ef575180151581036102ef5790565b90611d0a81611a52565b80611d2057506201518081018091116102c75790565b611d2981611a52565b60018103611d42575062093a8081018091116102c75790565b611d4b81611a52565b60028103611d6457506212750081018091116102c75790565b611d6d81611a52565b60038103611d86575062278d0081018091116102c75790565b611d8f81611a52565b60048103611da857506276a70081018091116102c75790565b80611db4600592611a52565b14611dc95762278d0081018091116102c75790565b6301e1338081018091116102c75790565b611de48154611aba565b9081611dee575050565b81601f60009311600114611e00575055565b908083918252611e1f601f60208420940160051c840160018501611c8e565b5555565b60405190611e3082611ba6565b60078252666d6f6e74686c7960c81b6020830152565b611e4f81611a52565b8015611f4f57611e5e81611a52565b60018114611f2c57611e6f81611a52565b60028114611f0657611e8081611a52565b60038114611efd57611e9181611a52565b60048114611ed75780611ea5600592611a52565b14611eb557611eb2611e23565b90565b604051611ec181611ba6565b6006815265796561726c7960d01b602082015290565b50604051611ee481611ba6565b6009815268717561727465726c7960b81b602082015290565b50611eb2611e23565b50604051611f1381611ba6565b600981526862692d7765656b6c7960b81b602082015290565b50604051611f3981611ba6565b60068152657765656b6c7960d01b602082015290565b50604051611f5c81611ba6565b60058152646461696c7960d81b60208201529056fea2646970667358221220473b2baabd4b9b49e71bc2e71b41d161513264111fd1855f3d1854cc8be5e77764736f6c63430008140033",
  "linkReferences": {},
  "deployedLinkReferences": {}
}