{
  "contracts/RecurChainAgent.sol": {
    "RecurChainAgent": {
      "abi": [
        {
          "inputs": [
            {
              "internalType": "address",
              "name": "_usdcToken",
              "type": "address"
            },
            {
              "internalType": "address",
              "name": "_feeCollector",
              "type": "address"
            }
          ],
          "stateMutability": "nonpayable",
          "type": "constructor"
        },
        {
          "inputs": [],
          "name": "AgentNotActive",
          "type": "error"
        },
        {
          "inputs": [],
          "name": "AgentNotFound",
          "type": "error"
        },
        {
          "inputs": [],
          "name": "EnforcedPause",
          "type": "error"
        },
        {
          "inputs": [],
          "name": "ExpectedPause",
          "type": "error"
        },
        {
          "inputs": [],
          "name": "FeeTooHigh",
          "type": "error"
        },
        {
          "inputs": [],
          "name": "InvalidAmount",
          "type": "error"
        },
        {
          "inputs": [],
          "name": "InvalidName",
          "type": "error"
        },
        {
          "inputs": [],
          "name": "InvalidRecipient",
          "type": "error"
        },
        {
          "inputs": [],
          "name": "InvalidStartDate",
          "type": "error"
        },
        {
          "inputs": [],
          "name": "NotAgentOwner",
          "type": "error"
        },
        {
          "inputs": [
            {
              "internalType": "address",
              "name": "owner",
              "type": "address"
            }
          ],
          "name": "OwnableInvalidOwner",
          "type": "error"
        },
        {
          "inputs": [
            {
              "internalType": "address",
              "name": "account",
              "type": "address"
            }
          ],
          "name": "OwnableUnauthorizedAccount",
          "type": "error"
        },
        {
          "inputs": [],
          "name": "ReentrancyGuardReentrantCall",
          "type": "error"
        },
        {
          "inputs": [],
          "name": "TooEarlyToExecute",
          "type": "error"
        },
        {
          "inputs": [],
          "name": "TransferFailed",
          "type": "error"
        },
        {
          "inputs": [],
          "name": "ZeroAddress",
          "type": "error"
        },
        {
          "anonymous": false,
          "inputs": [
            {
              "indexed": true,
              "internalType": "uint256",
              "name": "agentId",
              "type": "uint256"
            },
            {
              "indexed": true,
              "internalType": "address",
              "name": "user",
              "type": "address"
            }
          ],
          "name": "AgentCancelled",
          "type": "event"
        },
        {
          "anonymous": false,
          "inputs": [
            {
              "indexed": true,
              "internalType": "uint256",
              "name": "agentId",
              "type": "uint256"
            },
            {
              "indexed": true,
              "internalType": "address",
              "name": "owner",
              "type": "address"
            },
            {
              "indexed": false,
              "internalType": "string",
              "name": "name",
              "type": "string"
            },
            {
              "indexed": false,
              "internalType": "enum DataTypes.AgentType",
              "name": "agentType",
              "type": "uint8"
            },
            {
              "indexed": false,
              "internalType": "enum DataTypes.Frequency",
              "name": "frequency",
              "type": "uint8"
            },
            {
              "indexed": false,
              "internalType": "uint256",
              "name": "amount",
              "type": "uint256"
            }
          ],
          "name": "AgentCreated",
          "type": "event"
        },
        {
          "anonymous": false,
          "inputs": [
            {
              "indexed": true,
              "internalType": "uint256",
              "name": "agentId",
              "type": "uint256"
            }
          ],
          "name": "AgentPaused",
          "type": "event"
        },
        {
          "anonymous": false,
          "inputs": [
            {
              "indexed": true,
              "internalType": "uint256",
              "name": "agentId",
              "type": "uint256"
            }
          ],
          "name": "AgentResumed",
          "type": "event"
        },
        {
          "anonymous": false,
          "inputs": [
            {
              "indexed": true,
              "internalType": "uint256",
              "name": "agentId",
              "type": "uint256"
            },
            {
              "indexed": true,
              "internalType": "address",
              "name": "user",
              "type": "address"
            },
            {
              "indexed": false,
              "internalType": "string",
              "name": "name",
              "type": "string"
            },
            {
              "indexed": false,
              "internalType": "uint256",
              "name": "amount",
              "type": "uint256"
            },
            {
              "indexed": false,
              "internalType": "enum DataTypes.Frequency",
              "name": "frequency",
              "type": "uint8"
            }
          ],
          "name": "AgentUpdated",
          "type": "event"
        },
        {
          "anonymous": false,
          "inputs": [
            {
              "indexed": false,
              "internalType": "address",
              "name": "newCollector",
              "type": "address"
            }
          ],
          "name": "FeeCollectorUpdated",
          "type": "event"
        },
        {
          "anonymous": false,
          "inputs": [
            {
              "indexed": true,
              "internalType": "address",
              "name": "previousOwner",
              "type": "address"
            },
            {
              "indexed": true,
              "internalType": "address",
              "name": "newOwner",
              "type": "address"
            }
          ],
          "name": "OwnershipTransferred",
          "type": "event"
        },
        {
          "anonymous": false,
          "inputs": [
            {
              "indexed": false,
              "internalType": "address",
              "name": "account",
              "type": "address"
            }
          ],
          "name": "Paused",
          "type": "event"
        },
        {
          "anonymous": false,
          "inputs": [
            {
              "indexed": true,
              "internalType": "uint256",
              "name": "agentId",
              "type": "uint256"
            },
            {
              "indexed": true,
              "internalType": "address",
              "name": "recipient",
              "type": "address"
            },
            {
              "indexed": false,
              "internalType": "uint256",
              "name": "amount",
              "type": "uint256"
            },
            {
              "indexed": false,
              "internalType": "uint256",
              "name": "timestamp",
              "type": "uint256"
            }
          ],
          "name": "PaymentExecuted",
          "type": "event"
        },
        {
          "anonymous": false,
          "inputs": [
            {
              "indexed": false,
              "internalType": "uint256",
              "name": "newFee",
              "type": "uint256"
            }
          ],
          "name": "PlatformFeeUpdated",
          "type": "event"
        },
        {
          "anonymous": false,
          "inputs": [
            {
              "indexed": false,
              "internalType": "address",
              "name": "account",
              "type": "address"
            }
          ],
          "name": "Unpaused",
          "type": "event"
        },
        {
          "inputs": [],
          "name": "agentCounter",
          "outputs": [
            {
              "internalType": "uint256",
              "name": "",
              "type": "uint256"
            }
          ],
          "stateMutability": "view",
          "type": "function"
        },
        {
          "inputs": [
            {
              "internalType": "uint256",
              "name": "",
              "type": "uint256"
            },
            {
              "internalType": "uint256",
              "name": "",
              "type": "uint256"
            }
          ],
          "name": "agentPayments",
          "outputs": [
            {
              "internalType": "uint256",
              "name": "agentId",
              "type": "uint256"
            },
            {
              "internalType": "address",
              "name": "recipient",
              "type": "address"
            },
            {
              "internalType": "uint256",
              "name": "amount",
              "type": "uint256"
            },
            {
              "internalType": "uint256",
              "name": "timestamp",
              "type": "uint256"
            },
            {
              "internalType": "bytes32",
              "name": "txHash",
              "type": "bytes32"
            }
          ],
          "stateMutability": "view",
          "type": "function"
        },
        {
          "inputs": [
            {
              "internalType": "uint256",
              "name": "",
              "type": "uint256"
            }
          ],
          "name": "agents",
          "outputs": [
            {
              "internalType": "address",
              "name": "owner",
              "type": "address"
            },
            {
              "internalType": "string",
              "name": "name",
              "type": "string"
            },
            {
              "internalType": "enum DataTypes.AgentType",
              "name": "agentType",
              "type": "uint8"
            },
            {
              "internalType": "string",
              "name": "description",
              "type": "string"
            },
            {
              "internalType": "address",
              "name": "recipient",
              "type": "address"
            },
            {
              "internalType": "uint256",
              "name": "amount",
              "type": "uint256"
            },
            {
              "internalType": "enum DataTypes.Frequency",
              "name": "frequency",
              "type": "uint8"
            },
            {
              "internalType": "uint256",
              "name": "startDate",
              "type": "uint256"
            },
            {
              "internalType": "uint256",
              "name": "nextExecutionTime",
              "type": "uint256"
            },
            {
              "internalType": "bool",
              "name": "isActive",
              "type": "bool"
            },
            {
              "internalType": "uint256",
              "name": "executionCount",
              "type": "uint256"
            },
            {
              "internalType": "uint256",
              "name": "totalPaid",
              "type": "uint256"
            },
            {
              "internalType": "uint256",
              "name": "createdAt",
              "type": "uint256"
            }
          ],
          "stateMutability": "view",
          "type": "function"
        },
        {
          "inputs": [
            {
              "internalType": "uint256",
              "name": "agentId",
              "type": "uint256"
            }
          ],
          "name": "cancelAgent",
          "outputs": [],
          "stateMutability": "nonpayable",
          "type": "function"
        },
        {
          "inputs": [
            {
              "internalType": "string",
              "name": "_name",
              "type": "string"
            },
            {
              "internalType": "enum DataTypes.AgentType",
              "name": "_agentType",
              "type": "uint8"
            },
            {
              "internalType": "string",
              "name": "_description",
              "type": "string"
            },
            {
              "internalType": "address",
              "name": "_recipient",
              "type": "address"
            },
            {
              "internalType": "uint256",
              "name": "_amount",
              "type": "uint256"
            },
            {
              "internalType": "enum DataTypes.Frequency",
              "name": "_frequency",
              "type": "uint8"
            },
            {
              "internalType": "uint256",
              "name": "_startDate",
              "type": "uint256"
            }
          ],
          "name": "createAgent",
          "outputs": [
            {
              "internalType": "uint256",
              "name": "",
              "type": "uint256"
            }
          ],
          "stateMutability": "nonpayable",
          "type": "function"
        },
        {
          "inputs": [
            {
              "internalType": "uint256",
              "name": "agentId",
              "type": "uint256"
            }
          ],
          "name": "executePayment",
          "outputs": [],
          "stateMutability": "nonpayable",
          "type": "function"
        },
        {
          "inputs": [],
          "name": "feeCollector",
          "outputs": [
            {
              "internalType": "address",
              "name": "",
              "type": "address"
            }
          ],
          "stateMutability": "view",
          "type": "function"
        },
        {
          "inputs": [
            {
              "internalType": "uint256",
              "name": "agentId",
              "type": "uint256"
            }
          ],
          "name": "getAgent",
          "outputs": [
            {
              "internalType": "address",
              "name": "owner",
              "type": "address"
            },
            {
              "internalType": "string",
              "name": "name",
              "type": "string"
            },
            {
              "internalType": "enum DataTypes.AgentType",
              "name": "agentType",
              "type": "uint8"
            },
            {
              "internalType": "string",
              "name": "description",
              "type": "string"
            },
            {
              "internalType": "address",
              "name": "recipient",
              "type": "address"
            },
            {
              "internalType": "uint256",
              "name": "amount",
              "type": "uint256"
            },
            {
              "internalType": "enum DataTypes.Frequency",
              "name": "frequency",
              "type": "uint8"
            },
            {
              "internalType": "uint256",
              "name": "startDate",
              "type": "uint256"
            },
            {
              "internalType": "uint256",
              "name": "nextExecutionTime",
              "type": "uint256"
            },
            {
              "internalType": "bool",
              "name": "isActive",
              "type": "bool"
            },
            {
              "internalType": "uint256",
              "name": "executionCount",
              "type": "uint256"
            },
            {
              "internalType": "uint256",
              "name": "totalPaid",
              "type": "uint256"
            }
          ],
          "stateMutability": "view",
          "type": "function"
        },
        {
          "inputs": [
            {
              "internalType": "uint256",
              "name": "agentId",
              "type": "uint256"
            }
          ],
          "name": "getAgentPayments",
          "outputs": [
            {
              "components": [
                {
                  "internalType": "uint256",
                  "name": "agentId",
                  "type": "uint256"
                },
                {
                  "internalType": "address",
                  "name": "recipient",
                  "type": "address"
                },
                {
                  "internalType": "uint256",
                  "name": "amount",
                  "type": "uint256"
                },
                {
                  "internalType": "uint256",
                  "name": "timestamp",
                  "type": "uint256"
                },
                {
                  "internalType": "bytes32",
                  "name": "txHash",
                  "type": "bytes32"
                }
              ],
              "internalType": "struct DataTypes.Payment[]",
              "name": "",
              "type": "tuple[]"
            }
          ],
          "stateMutability": "view",
          "type": "function"
        },
        {
          "inputs": [
            {
              "internalType": "uint256",
              "name": "agentId",
              "type": "uint256"
            }
          ],
          "name": "getAgentSummary",
          "outputs": [
            {
              "internalType": "string",
              "name": "name",
              "type": "string"
            },
            {
              "internalType": "uint256",
              "name": "amount",
              "type": "uint256"
            },
            {
              "internalType": "string",
              "name": "frequencyStr",
              "type": "string"
            },
            {
              "internalType": "address",
              "name": "recipient",
              "type": "address"
            },
            {
              "internalType": "uint256",
              "name": "nextRun",
              "type": "uint256"
            },
            {
              "internalType": "bool",
              "name": "isActive",
              "type": "bool"
            }
          ],
          "stateMutability": "view",
          "type": "function"
        },
        {
          "inputs": [
            {
              "internalType": "address",
              "name": "user",
              "type": "address"
            }
          ],
          "name": "getUserAgents",
          "outputs": [
            {
              "internalType": "uint256[]",
              "name": "",
              "type": "uint256[]"
            }
          ],
          "stateMutability": "view",
          "type": "function"
        },
        {
          "inputs": [
            {
              "internalType": "uint256",
              "name": "agentId",
              "type": "uint256"
            }
          ],
          "name": "isAgentReadyForExecution",
          "outputs": [
            {
              "internalType": "bool",
              "name": "",
              "type": "bool"
            }
          ],
          "stateMutability": "view",
          "type": "function"
        },
        {
          "inputs": [],
          "name": "owner",
          "outputs": [
            {
              "internalType": "address",
              "name": "",
              "type": "address"
            }
          ],
          "stateMutability": "view",
          "type": "function"
        },
        {
          "inputs": [],
          "name": "pause",
          "outputs": [],
          "stateMutability": "nonpayable",
          "type": "function"
        },
        {
          "inputs": [
            {
              "internalType": "uint256",
              "name": "agentId",
              "type": "uint256"
            }
          ],
          "name": "pauseAgent",
          "outputs": [],
          "stateMutability": "nonpayable",
          "type": "function"
        },
        {
          "inputs": [],
          "name": "paused",
          "outputs": [
            {
              "internalType": "bool",
              "name": "",
              "type": "bool"
            }
          ],
          "stateMutability": "view",
          "type": "function"
        },
        {
          "inputs": [],
          "name": "platformFee",
          "outputs": [
            {
              "internalType": "uint256",
              "name": "",
              "type": "uint256"
            }
          ],
          "stateMutability": "view",
          "type": "function"
        },
        {
          "inputs": [],
          "name": "renounceOwnership",
          "outputs": [],
          "stateMutability": "nonpayable",
          "type": "function"
        },
        {
          "inputs": [
            {
              "internalType": "uint256",
              "name": "agentId",
              "type": "uint256"
            }
          ],
          "name": "resumeAgent",
          "outputs": [],
          "stateMutability": "nonpayable",
          "type": "function"
        },
        {
          "inputs": [
            {
              "internalType": "address",
              "name": "newOwner",
              "type": "address"
            }
          ],
          "name": "transferOwnership",
          "outputs": [],
          "stateMutability": "nonpayable",
          "type": "function"
        },
        {
          "inputs": [],
          "name": "unpause",
          "outputs": [],
          "stateMutability": "nonpayable",
          "type": "function"
        },
        {
          "inputs": [
            {
              "internalType": "uint256",
              "name": "agentId",
              "type": "uint256"
            },
            {
              "internalType": "string",
              "name": "_name",
              "type": "string"
            },
            {
              "internalType": "string",
              "name": "_description",
              "type": "string"
            },
            {
              "internalType": "uint256",
              "name": "_amount",
              "type": "uint256"
            },
            {
              "internalType": "enum DataTypes.Frequency",
              "name": "_frequency",
              "type": "uint8"
            },
            {
              "internalType": "address",
              "name": "_recipient",
              "type": "address"
            },
            {
              "internalType": "uint256",
              "name": "_startDate",
              "type": "uint256"
            }
          ],
          "name": "updateAgent",
          "outputs": [],
          "stateMutability": "nonpayable",
          "type": "function"
        },
        {
          "inputs": [
            {
              "internalType": "address",
              "name": "_newCollector",
              "type": "address"
            }
          ],
          "name": "updateFeeCollector",
          "outputs": [],
          "stateMutability": "nonpayable",
          "type": "function"
        },
        {
          "inputs": [
            {
              "internalType": "uint256",
              "name": "_newFee",
              "type": "uint256"
            }
          ],
          "name": "updatePlatformFee",
          "outputs": [],
          "stateMutability": "nonpayable",
          "type": "function"
        },
        {
          "inputs": [],
          "name": "usdcToken",
          "outputs": [
            {
              "internalType": "contract IERC20",
              "name": "",
              "type": "address"
            }
          ],
          "stateMutability": "view",
          "type": "function"
        },
        {
          "inputs": [
            {
              "internalType": "address",
              "name": "",
              "type": "address"
            },
            {
              "internalType": "uint256",
              "name": "",
              "type": "uint256"
            }
          ],
          "name": "userAgents",
          "outputs": [
            {
              "internalType": "uint256",
              "name": "",
              "type": "uint256"
            }
          ],
          "stateMutability": "view",
          "type": "function"
        }
      ],
      "evm": {
        "bytecode": {
          "linkReferences": {},
          "object": "60a034620000ff57601f620020ed38819003918201601f19168301916001600160401b0383118484101762000104578084926040948552833981010312620000ff576200005a602062000052836200011a565b92016200011a565b3315620000e65760008054336001600160a01b0319808316821784556040519590946001600160a01b03949093859391908416907f8be0079c531659141344cd1fd0a4f28419497f9722a3daafe3b4186f6b6457e09080a360018055600a6007551660805216906008541617600855611fbd90816200013082396080518181816116da01526119b10152f35b604051631e4fbdf760e01b815260006004820152602490fd5b600080fd5b634e487b7160e01b600052604160045260246000fd5b51906001600160a01b0382168203620000ff5756fe608080604052600436101561001357600080fd5b60003560e01c90816301a7c7ed146119e05750806311eac8551461199b578063162a0cf81461163057806326232a2e146116125780632bd4fd00146115605780632de5aaf7146114455780633d46519d146113915780633f4ba83a1461132757806349392ab1146112b1578063513856c81461118357806351ca9ff91461112b5780635c975abb1461110857806367c7ba39146110ea5780636ac1898714611078578063715018a61461101f5780638456cb5914610fc55780638ac05be214610a725780638da5cb5b14610a4957806395b5636b1461062b578063aa0b5988146105cd578063ba4704ff1461049a578063bf7c7d3214610425578063c415b95c146103fc578063d2c35ce81461037d578063f2fde38b146102f45763f78dd2411461013d57600080fd5b346102ef5760203660031901126102ef576004358060005260038060205260018060a01b03806040600020541633036102dd5782600052816020526000600c60408220928354169282815561019460018201611df0565b8260028201556101a5858201611df0565b82600482015582600582015582600682015582600782015582600882015582600982015582600a82015582600b8201550155600052600560205260406000209081549160005b83811061021c575b33857fca0737b4cbabe00ec82851c3d171ebe81ab22aac06f31c5e13f612482b7384cd600080a3005b846102278284611bfa565b905490851b1c146102405761023b90611c95565b6101eb565b909192600019918282019182116102c75761026e6102616102879386611bfa565b905490871b1c9185611bfa565b90919082549060031b91821b91600019901b1916179055565b815480156102b15781019261029c8484611bfa565b81939154921b1b1916905555388080806101f3565b634e487b7160e01b600052603160045260246000fd5b634e487b7160e01b600052601160045260246000fd5b604051630e41dcbf60e21b8152600490fd5b600080fd5b346102ef5760203660031901126102ef5761030d611a88565b610315611c69565b6001600160a01b0390811690811561036457600054826001600160601b0360a01b821617600055167f8be0079c531659141344cd1fd0a4f28419497f9722a3daafe3b4186f6b6457e0600080a3005b604051631e4fbdf760e01b815260006004820152602490fd5b346102ef5760203660031901126102ef57610396611a88565b61039e611c69565b6001600160a01b031680156103c5576001600160601b0360a01b6008541617600855600080f35b60405162461bcd60e51b815260206004820152600f60248201526e496e76616c6964206164647265737360881b6044820152606490fd5b346102ef5760003660031901126102ef576008546040516001600160a01b039091168152602090f35b346102ef5760203660031901126102ef576004356000818152600360205260409020546001600160a01b031633036102dd578060005260036020526009604060002001600160ff198254161790557f62637348b7e22ec324516e93125a967308efd1559b84d505bf18e582255b2053600080a2005b346102ef576020806003193601126102ef5760043560005260048152604060002090815467ffffffffffffffff81116105b7576040519060056104e18483831b0184611bd8565b8183528383018095600052846000206000915b84831061056757604080518881528751818a018190528a928201908a60005b8281106105205784840385f35b855180518552808301516001600160a01b0316858401526040808201519086015260608082015190860152608090810151908501529481019460a090930192600101610513565b838760019260405161057881611ba0565b85548152848060a01b038587015416838201526002860154604082015260038601546060820152600486015460808201528152019201920191906104f4565b634e487b7160e01b600052604160045260246000fd5b346102ef5760203660031901126102ef576004356105e9611c69565b6101f481116105f757600755005b60405162461bcd60e51b815260206004820152600c60248201526b08ccaca40e8dede40d0d2ced60a31b6044820152606490fd5b346102ef5760e03660031901126102ef5767ffffffffffffffff6004356024358281116102ef57610660903690600401611c12565b916044358181116102ef57610679903690600401611c12565b60843560068110156102ef576001600160a01b039460a435868116908190036102ef5760c4359486600052602097600389526040600020541633036102dd57866000526003885260406000209460ff60098701541615610a375760009380518061093e575b50508051908161083d575b50505060643580610832575b5080610817575b5060068301918060ff84541661071182611a68565b61071a81611a68565b03610804575b50836107bc575b7f56a26aa0ddf2e8773d894b84cf8f90ea5d41333e3868da172cbaf7b068d27ff2935061078c575b60ff60058301549154169061077260405193606085526001606086019101611b0a565b9583015261077f81611a68565b60408201528033940390a3005b600a8201546107a4576007820154600883015561074f565b6107b260ff82541642611d16565b600883015561074f565b504283106107f2577f56a26aa0ddf2e8773d894b84cf8f90ea5d41333e3868da172cbaf7b068d27ff29260078301556001610727565b604051630bf784c760e01b8152600490fd5b61080f915082611cbb565b600186610720565b6004840180546001600160a01b0319169091179055866106fc565b6005850155876106f5565b600387019282116105b75781906108548454611ad0565b8b601f8211610902575b50508a90601f831160011461089d57600092610892575b50508160011b916000199060031b1c19161790555b8780806106e9565b015190508a80610875565b60008581528c81209350601f198516905b8d8282106108ec5750509084600195949392106108d3575b505050811b01905561088a565b015160001960f88460031b161c191690558a80806108c6565b60018596829396860151815501950193016108ae565b61092d91866000528160002090601f860160051c8201928610610934575b601f0160051c0190611ca4565b8b8b61085e565b9091508190610920565b60018801918482116105b75781906109568454611ad0565b8d601f8211610a06575b50508c908d601f84116001146109a05750600092610995575b50508160011b916000199060031b1c19161790555b89806106de565b015190508c80610979565b60008681528181209450601f198616915b8282106109ee5750509084600195949392106109d5575b505050811b01905561098e565b015160001960f88460031b161c191690558c80806109c8565b806001869782949787015181550196019401906109b1565b610a3091866000528160002090601f860160051c820192861061093457601f0160051c0190611ca4565b8d8d610960565b604051632437e77160e11b8152600490fd5b346102ef5760003660031901126102ef576000546040516001600160a01b039091168152602090f35b346102ef5760e03660031901126102ef5760043567ffffffffffffffff81116102ef57610aa3903690600401611c12565b600660243510156102ef5760443567ffffffffffffffff81116102ef57610ace903690600401611c12565b606435906001600160a01b03821682036102ef57600660a43510156102ef57610af5611cd3565b825115610fb3576001600160a01b03821615610fa15760843515610f8f5762015180420642034281116102c75760c435106107f257610b35600654611c95565b918260065560405191826101a081011067ffffffffffffffff6101a0850111176105b7576101a08301604052338352846020840152610b75602435611a68565b602435604084015260608301526001600160a01b0316608082015260843560a0820152610ba360a435611a68565b60a43560c082015260c43560e082015260c4356101008201526001610120820152600061014082015260006101608201524261018082015281600052600360205260406000209060018060a01b038151166001600160601b0360a01b835416178255602081015180519067ffffffffffffffff82116105b7578190610c2b6001860154611ad0565b601f8111610f5a575b50602090601f8311600114610ee857600092610edd575b50508160011b916000199060031b1c19161760018301555b6040810151610c7181611a68565b610c7a81611a68565b60ff80196002850154169116176002830155606081015180519067ffffffffffffffff82116105b757610cb06003850154611ad0565b601f8111610ea8575b50602090601f8311600114610e32579180600c949261018094600092610e27575b50508160011b916000199060031b1c19161760038501555b6004840160018060a01b036080830151166001600160601b0360a01b82541617905560a08101516005850155610d3860c0820151610d2f81611a68565b60068601611cbb565b60e08101516007850155610100810151600885015560098401610120820151151560ff80198354169116179055610140810151600a850155610160810151600b8501550151910155336000526005602052604060002091825492600160401b8410156105b7578261026e85610db4936001602098018155611bfa565b817f3f2bc73d296d889f39a6fa23784ee04c8ae02d6e7d058dbade830a3a0e10282d610deb60405193608085526080850190611a28565b92610df7602435611a68565b60243586820152610e0960a435611a68565b60a435604082015260843560608201528033940390a3604051908152f35b015190508880610cda565b906003850160005260206000209160005b601f1985168110610e90575092600c94926001926101809583601f19811610610e77575b505050811b016003850155610cf2565b015160001960f88460031b161c19169055888080610e67565b91926020600181928685015181550194019201610e43565b610ed790600386016000526020600020601f850160051c8101916020861061093457601f0160051c0190611ca4565b86610cb9565b015190508680610c4b565b9250600185016000526020600020906000935b601f1984168510610f3f576001945083601f19811610610f26575b505050811b016001830155610c63565b015160001960f88460031b161c19169055868080610f16565b81810151835560209485019460019093019290910190610efb565b610f8990600187016000526020600020601f850160051c8101916020861061093457601f0160051c0190611ca4565b87610c34565b60405163162908e360e11b8152600490fd5b604051634e46966960e11b8152600490fd5b60405163430f13b360e01b8152600490fd5b346102ef5760003660031901126102ef57610fde611c69565b610fe6611cd3565b600160ff1960025416176002557f62e78cea01bee320cd4e420270b5ea74000d11b0c9f74754ebdbfc544b05a2586020604051338152a1005b346102ef5760003660031901126102ef57611038611c69565b600080546001600160a01b0319811682556001600160a01b03167f8be0079c531659141344cd1fd0a4f28419497f9722a3daafe3b4186f6b6457e08280a3005b346102ef5760203660031901126102ef576004356000818152600360205260409020546001600160a01b031633036102dd57806000526003602052600960406000200160ff1981541690557f5561eb580af870fbf8b9a0506a6ebe92e64c9182edba8560cac1bab55b908a94600080a2005b346102ef5760003660031901126102ef576020600654604051908152f35b346102ef5760003660031901126102ef57602060ff600254166040519015158152f35b346102ef5760403660031901126102ef57611144611a88565b6001600160a01b03166000908152600560205260409020805460243591908210156102ef5760209161117591611bfa565b90546040519160031b1c8152f35b346102ef5760203660031901126102ef576004356000908152600360205260409081902080549151916001600160a01b0390811691836111c68160018401611b0a565b036111d19085611bd8565b600281015460ff169060405192838060038401906111ee91611b0a565b036111f99085611bd8565b600482015416926005820154600683015460ff166007840154600885015491600986015460ff1693600a87015495600b88015497600c0154986040519c8d9c8d528c6101a06020819201528d0161124f91611a28565b9061125981611a68565b60408d01528b810360608d015261126f91611a28565b9860808b015260a08a015261128381611a68565b60c089015260e088015261010087015215156101208601526101408501526101608401526101808301520390f35b346102ef5760403660031901126102ef576024356004356000526004602052604060002080548210156102ef5760a0916112ea91611a9e565b50805490600180841b0360018201541690600281015460046003830154920154926040519485526020850152604084015260608301526080820152f35b346102ef5760003660031901126102ef57611340611c69565b60025460ff81161561137f5760ff19166002557f5db9ee0a495bf2e6ff9c91a7834c1ba4fdd244a5e8aa4e537bd38aeae4b073aa6020604051338152a1005b604051638dfc202b60e01b8152600490fd5b346102ef576020806003193601126102ef576001600160a01b036113b3611a88565b1660005260058152604060002060405190818382549182815201908192600052846000209060005b868282106114315786866113f182880383611bd8565b604051928392818401908285525180915260408401929160005b82811061141a57505050500390f35b83518552869550938101939281019260010161140b565b8354855290930192600192830192016113db565b346102ef5760203660031901126102ef5760043560005260036020526114d4604060002060018060a01b03808254169160ff6002820154169160048201541691600582015460ff600684015416600784015460088501549160ff60098701541693611524600a8801549660036114eb600b8b01549a6040519e8f806114cd8160018601611b0a565b0390611bd8565b6114e46040518094819301611b0a565b0382611bd8565b6115086040519d8e9d8e528d610180908160208201520190611a28565b9161151281611a68565b60408d01528b820360608d0152611a28565b9760808a015260a089015261153881611a68565b60c088015260e087015261010086015215156101208501526101408401526101608301520390f35b346102ef5760203660031901126102ef5760043560005260036020526115e96001604060002060058101549061159c60ff600683015416611e5c565b6115fc848060a01b03600484015416936008840154926115d560ff600987015416956115ce604051809a819301611b0a565b0388611bd8565b60405197889760c0895260c0890190611a28565b9160208801528682036040880152611a28565b9260608501526080840152151560a08301520390f35b346102ef5760003660031901126102ef576020600754604051908152f35b346102ef576020806003193601126102ef5760043560026001541461198957600260015561165c611cd3565b8060005260038252604060002060ff60098201541615610a37576008810190815442106119775760058101546007548082029082820414821517156102c75761271090046116aa8183611cf1565b83546040516323b872dd60e01b81526001600160a01b0391821660048201523060248201526044810192909252917f000000000000000000000000000000000000000000000000000000000000000083169188816064816000875af19081156119315760009161195a575b50156118f257600485019183835416916040518a81806117598a63a9059cbb60e01b988984526004840160209093929193604081019460018060a01b031681520152565b03816000875af19081156119315760009161193d575b50156118f2578991816118a7575b505050508560005260048752604060002094828254166000194301954387116102c757604051966117ad88611ba0565b8988528a880192835260408801978789526060810199428b5260808201924083528054600160401b8110156105b7576117eb91600182018155611a9e565b929092611891577fcd19bb5d0157296d4f7382afb5c2308f7413979d682b76af1d187c8bd78b1c359a60409a61187b966004945186558a600187019151166001600160601b0360a01b82541617905551600285015551600384015551910155600a81016118588154611c95565b9055600b8101611869878254611cf1565b905560ff600684549201541690611d16565b905554169482519182524290820152a360018055005b634e487b7160e01b600052600060045260246000fd5b60085460405194855286166001600160a01b031660048501526024840191909152829060449082906000905af190811561193157600091611904575b50156118f2578787818061177d565b6040516312171d8360e31b8152600490fd5b6119249150883d8a1161192a575b61191c8183611bd8565b810190611cfe565b886118e3565b503d611912565b6040513d6000823e3d90fd5b61195491508b3d8d1161192a5761191c8183611bd8565b8b61176f565b6119719150893d8b1161192a5761191c8183611bd8565b89611715565b60405163e65e683360e01b8152600490fd5b604051633ee5aeb560e01b8152600490fd5b346102ef5760003660031901126102ef576040517f00000000000000000000000000000000000000000000000000000000000000006001600160a01b03168152602090f35b346102ef5760203660031901126102ef5760209060043560005260038252604060002060ff6009820154169081611a19575b5015158152f35b60089150015442101583611a12565b919082519283825260005b848110611a54575050826000602080949584010152601f8019910116010190565b602081830181015184830182015201611a33565b60061115611a7257565b634e487b7160e01b600052602160045260246000fd5b600435906001600160a01b03821682036102ef57565b8054821015611aba576000526005602060002091020190600090565b634e487b7160e01b600052603260045260246000fd5b90600182811c92168015611b00575b6020831014611aea57565b634e487b7160e01b600052602260045260246000fd5b91607f1691611adf565b9060009291805491611b1b83611ad0565b918282526001938481169081600014611b7d5750600114611b3d575b50505050565b90919394506000526020928360002092846000945b838610611b69575050505001019038808080611b37565b805485870183015294019385908201611b52565b9294505050602093945060ff191683830152151560051b01019038808080611b37565b60a0810190811067ffffffffffffffff8211176105b757604052565b6040810190811067ffffffffffffffff8211176105b757604052565b90601f8019910116810190811067ffffffffffffffff8211176105b757604052565b8054821015611aba5760005260206000200190600090565b81601f820112156102ef5780359067ffffffffffffffff82116105b75760405192611c47601f8401601f191660200185611bd8565b828452602083830101116102ef57816000926020809301838601378301015290565b6000546001600160a01b03163303611c7d57565b60405163118cdaa760e01b8152336004820152602490fd5b60001981146102c75760010190565b818110611caf575050565b60008155600101611ca4565b90611cc581611a68565b60ff80198354169116179055565b60ff60025416611cdf57565b60405163d93c066560e01b8152600490fd5b919082018092116102c757565b908160209103126102ef575180151581036102ef5790565b90611d2081611a68565b80611d3657506201518081018091116102c75790565b611d3f81611a68565b60018103611d58575062093a8081018091116102c75790565b611d6181611a68565b60028103611d7a57506212750081018091116102c75790565b611d8381611a68565b60038103611d9c575062278d0081018091116102c75790565b611da581611a68565b60048103611dbe57506276a70081018091116102c75790565b80611dca600592611a68565b14611ddf5762278d0081018091116102c75790565b6301e1338081018091116102c75790565b611dfa8154611ad0565b9081611e04575050565b81601f60009311600114611e16575055565b908083918252611e35601f60208420940160051c840160018501611ca4565b5555565b60405190611e4682611bbc565b60078252666d6f6e74686c7960c81b6020830152565b611e6581611a68565b8015611f6557611e7481611a68565b60018114611f4257611e8581611a68565b60028114611f1c57611e9681611a68565b60038114611f1357611ea781611a68565b60048114611eed5780611ebb600592611a68565b14611ecb57611ec8611e39565b90565b604051611ed781611bbc565b6006815265796561726c7960d01b602082015290565b50604051611efa81611bbc565b6009815268717561727465726c7960b81b602082015290565b50611ec8611e39565b50604051611f2981611bbc565b600981526862692d7765656b6c7960b81b602082015290565b50604051611f4f81611bbc565b60068152657765656b6c7960d01b602082015290565b50604051611f7281611bbc565b60058152646461696c7960d81b60208201529056fea264697066735822122065669de3dcf34f06eaa9eb5c04a81f4ad5561410d586f459ffa54397caabda8564736f6c63430008140033",
          "opcodes": "PUSH1 0xA0 CALLVALUE PUSH3 0xFF JUMPI PUSH1 0x1F PUSH3 0x20ED CODESIZE DUP2 SWAP1 SUB SWAP2 DUP3 ADD PUSH1 0x1F NOT AND DUP4 ADD SWAP2 PUSH1 0x1 PUSH1 0x1 PUSH1 0x40 SHL SUB DUP4 GT DUP5 DUP5 LT OR PUSH3 0x104 JUMPI DUP1 DUP5 SWAP3 PUSH1 0x40 SWAP5 DUP6 MSTORE DUP4 CODECOPY DUP2 ADD SUB SLT PUSH3 0xFF JUMPI PUSH3 0x5A PUSH1 0x20 PUSH3 0x52 DUP4 PUSH3 0x11A JUMP JUMPDEST SWAP3 ADD PUSH3 0x11A JUMP JUMPDEST CALLER ISZERO PUSH3 0xE6 JUMPI PUSH1 0x0 DUP1 SLOAD CALLER PUSH1 0x1 PUSH1 0x1 PUSH1 0xA0 SHL SUB NOT DUP1 DUP4 AND DUP3 OR DUP5 SSTORE PUSH1 0x40 MLOAD SWAP6 SWAP1 SWAP5 PUSH1 0x1 PUSH1 0x1 PUSH1 0xA0 SHL SUB SWAP5 SWAP1 SWAP4 DUP6 SWAP4 SWAP2 SWAP1 DUP5 AND SWAP1 PUSH32 0x8BE0079C531659141344CD1FD0A4F28419497F9722A3DAAFE3B4186F6B6457E0 SWAP1 DUP1 LOG3 PUSH1 0x1 DUP1 SSTORE PUSH1 0xA PUSH1 0x7 SSTORE AND PUSH1 0x80 MSTORE AND SWAP1 PUSH1 0x8 SLOAD AND OR PUSH1 0x8 SSTORE PUSH2 0x1FBD SWAP1 DUP2 PUSH3 0x130 DUP3 CODECOPY PUSH1 0x80 MLOAD DUP2 DUP2 DUP2 PUSH2 0x16DA ADD MSTORE PUSH2 0x19B1 ADD MSTORE RETURN JUMPDEST PUSH1 0x40 MLOAD PUSH4 0x1E4FBDF7 PUSH1 0xE0 SHL DUP2 MSTORE PUSH1 0x0 PUSH1 0x4 DUP3 ADD MSTORE PUSH1 0x24 SWAP1 REVERT JUMPDEST PUSH1 0x0 DUP1 REVERT JUMPDEST PUSH4 0x4E487B71 PUSH1 0xE0 SHL PUSH1 0x0 MSTORE PUSH1 0x41 PUSH1 0x4 MSTORE PUSH1 0x24 PUSH1 0x0 REVERT JUMPDEST MLOAD SWAP1 PUSH1 0x1 PUSH1 0x1 PUSH1 0xA0 SHL SUB DUP3 AND DUP3 SUB PUSH3 0xFF JUMPI JUMP INVALID PUSH1 0x80 DUP1 PUSH1 0x40 MSTORE PUSH1 0x4 CALLDATASIZE LT ISZERO PUSH2 0x13 JUMPI PUSH1 0x0 DUP1 REVERT JUMPDEST PUSH1 0x0 CALLDATALOAD PUSH1 0xE0 SHR SWAP1 DUP2 PUSH4 0x1A7C7ED EQ PUSH2 0x19E0 JUMPI POP DUP1 PUSH4 0x11EAC855 EQ PUSH2 0x199B JUMPI DUP1 PUSH4 0x162A0CF8 EQ PUSH2 0x1630 JUMPI DUP1 PUSH4 0x26232A2E EQ PUSH2 0x1612 JUMPI DUP1 PUSH4 0x2BD4FD00 EQ PUSH2 0x1560 JUMPI DUP1 PUSH4 0x2DE5AAF7 EQ PUSH2 0x1445 JUMPI DUP1 PUSH4 0x3D46519D EQ PUSH2 0x1391 JUMPI DUP1 PUSH4 0x3F4BA83A EQ PUSH2 0x1327 JUMPI DUP1 PUSH4 0x49392AB1 EQ PUSH2 0x12B1 JUMPI DUP1 PUSH4 0x513856C8 EQ PUSH2 0x1183 JUMPI DUP1 PUSH4 0x51CA9FF9 EQ PUSH2 0x112B JUMPI DUP1 PUSH4 0x5C975ABB EQ PUSH2 0x1108 JUMPI DUP1 PUSH4 0x67C7BA39 EQ PUSH2 0x10EA JUMPI DUP1 PUSH4 0x6AC18987 EQ PUSH2 0x1078 JUMPI DUP1 PUSH4 0x715018A6 EQ PUSH2 0x101F JUMPI DUP1 PUSH4 0x8456CB59 EQ PUSH2 0xFC5 JUMPI DUP1 PUSH4 0x8AC05BE2 EQ PUSH2 0xA72 JUMPI DUP1 PUSH4 0x8DA5CB5B EQ PUSH2 0xA49 JUMPI DUP1 PUSH4 0x95B5636B EQ PUSH2 0x62B JUMPI DUP1 PUSH4 0xAA0B5988 EQ PUSH2 0x5CD JUMPI DUP1 PUSH4 0xBA4704FF EQ PUSH2 0x49A JUMPI DUP1 PUSH4 0xBF7C7D32 EQ PUSH2 0x425 JUMPI DUP1 PUSH4 0xC415B95C EQ PUSH2 0x3FC JUMPI DUP1 PUSH4 0xD2C35CE8 EQ PUSH2 0x37D JUMPI DUP1 PUSH4 0xF2FDE38B EQ PUSH2 0x2F4 JUMPI PUSH4 0xF78DD241 EQ PUSH2 0x13D JUMPI PUSH1 0x0 DUP1 REVERT JUMPDEST CALLVALUE PUSH2 0x2EF JUMPI PUSH1 0x20 CALLDATASIZE PUSH1 0x3 NOT ADD SLT PUSH2 0x2EF JUMPI PUSH1 0x4 CALLDATALOAD DUP1 PUSH1 0x0 MSTORE PUSH1 0x3 DUP1 PUSH1 0x20 MSTORE PUSH1 0x1 DUP1 PUSH1 0xA0 SHL SUB DUP1 PUSH1 0x40 PUSH1 0x0 KECCAK256 SLOAD AND CALLER SUB PUSH2 0x2DD JUMPI DUP3 PUSH1 0x0 MSTORE DUP2 PUSH1 0x20 MSTORE PUSH1 0x0 PUSH1 0xC PUSH1 0x40 DUP3 KECCAK256 SWAP3 DUP4 SLOAD AND SWAP3 DUP3 DUP2 SSTORE PUSH2 0x194 PUSH1 0x1 DUP3 ADD PUSH2 0x1DF0 JUMP JUMPDEST DUP3 PUSH1 0x2 DUP3 ADD SSTORE PUSH2 0x1A5 DUP6 DUP3 ADD PUSH2 0x1DF0 JUMP JUMPDEST DUP3 PUSH1 0x4 DUP3 ADD SSTORE DUP3 PUSH1 0x5 DUP3 ADD SSTORE DUP3 PUSH1 0x6 DUP3 ADD SSTORE DUP3 PUSH1 0x7 DUP3 ADD SSTORE DUP3 PUSH1 0x8 DUP3 ADD SSTORE DUP3 PUSH1 0x9 DUP3 ADD SSTORE DUP3 PUSH1 0xA DUP3 ADD SSTORE DUP3 PUSH1 0xB DUP3 ADD SSTORE ADD SSTORE PUSH1 0x0 MSTORE PUSH1 0x5 PUSH1 0x20 MSTORE PUSH1 0x40 PUSH1 0x0 KECCAK256 SWAP1 DUP2 SLOAD SWAP2 PUSH1 0x0 JUMPDEST DUP4 DUP2 LT PUSH2 0x21C JUMPI JUMPDEST CALLER DUP6 PUSH32 0xCA0737B4CBABE00EC82851C3D171EBE81AB22AAC06F31C5E13F612482B7384CD PUSH1 0x0 DUP1 LOG3 STOP JUMPDEST DUP5 PUSH2 0x227 DUP3 DUP5 PUSH2 0x1BFA JUMP JUMPDEST SWAP1 SLOAD SWAP1 DUP6 SHL SHR EQ PUSH2 0x240 JUMPI PUSH2 0x23B SWAP1 PUSH2 0x1C95 JUMP JUMPDEST PUSH2 0x1EB JUMP JUMPDEST SWAP1 SWAP2 SWAP3 PUSH1 0x0 NOT SWAP2 DUP3 DUP3 ADD SWAP2 DUP3 GT PUSH2 0x2C7 JUMPI PUSH2 0x26E PUSH2 0x261 PUSH2 0x287 SWAP4 DUP7 PUSH2 0x1BFA JUMP JUMPDEST SWAP1 SLOAD SWAP1 DUP8 SHL SHR SWAP2 DUP6 PUSH2 0x1BFA JUMP JUMPDEST SWAP1 SWAP2 SWAP1 DUP3 SLOAD SWAP1 PUSH1 0x3 SHL SWAP2 DUP3 SHL SWAP2 PUSH1 0x0 NOT SWAP1 SHL NOT AND OR SWAP1 SSTORE JUMP JUMPDEST DUP2 SLOAD DUP1 ISZERO PUSH2 0x2B1 JUMPI DUP2 ADD SWAP3 PUSH2 0x29C DUP5 DUP5 PUSH2 0x1BFA JUMP JUMPDEST DUP2 SWAP4 SWAP2 SLOAD SWAP3 SHL SHL NOT AND SWAP1 SSTORE SSTORE CODESIZE DUP1 DUP1 DUP1 PUSH2 0x1F3 JUMP JUMPDEST PUSH4 0x4E487B71 PUSH1 0xE0 SHL PUSH1 0x0 MSTORE PUSH1 0x31 PUSH1 0x4 MSTORE PUSH1 0x24 PUSH1 0x0 REVERT JUMPDEST PUSH4 0x4E487B71 PUSH1 0xE0 SHL PUSH1 0x0 MSTORE PUSH1 0x11 PUSH1 0x4 MSTORE PUSH1 0x24 PUSH1 0x0 REVERT JUMPDEST PUSH1 0x40 MLOAD PUSH4 0xE41DCBF PUSH1 0xE2 SHL DUP2 MSTORE PUSH1 0x4 SWAP1 REVERT JUMPDEST PUSH1 0x0 DUP1 REVERT JUMPDEST CALLVALUE PUSH2 0x2EF JUMPI PUSH1 0x20 CALLDATASIZE PUSH1 0x3 NOT ADD SLT PUSH2 0x2EF JUMPI PUSH2 0x30D PUSH2 0x1A88 JUMP JUMPDEST PUSH2 0x315 PUSH2 0x1C69 JUMP JUMPDEST PUSH1 0x1 PUSH1 0x1 PUSH1 0xA0 SHL SUB SWAP1 DUP2 AND SWAP1 DUP2 ISZERO PUSH2 0x364 JUMPI PUSH1 0x0 SLOAD DUP3 PUSH1 0x1 PUSH1 0x1 PUSH1 0x60 SHL SUB PUSH1 0xA0 SHL DUP3 AND OR PUSH1 0x0 SSTORE AND PUSH32 0x8BE0079C531659141344CD1FD0A4F28419497F9722A3DAAFE3B4186F6B6457E0 PUSH1 0x0 DUP1 LOG3 STOP JUMPDEST PUSH1 0x40 MLOAD PUSH4 0x1E4FBDF7 PUSH1 0xE0 SHL DUP2 MSTORE PUSH1 0x0 PUSH1 0x4 DUP3 ADD MSTORE PUSH1 0x24 SWAP1 REVERT JUMPDEST CALLVALUE PUSH2 0x2EF JUMPI PUSH1 0x20 CALLDATASIZE PUSH1 0x3 NOT ADD SLT PUSH2 0x2EF JUMPI PUSH2 0x396 PUSH2 0x1A88 JUMP JUMPDEST PUSH2 0x39E PUSH2 0x1C69 JUMP JUMPDEST PUSH1 0x1 PUSH1 0x1 PUSH1 0xA0 SHL SUB AND DUP1 ISZERO PUSH2 0x3C5 JUMPI PUSH1 0x1 PUSH1 0x1 PUSH1 0x60 SHL SUB PUSH1 0xA0 SHL PUSH1 0x8 SLOAD AND OR PUSH1 0x8 SSTORE PUSH1 0x0 DUP1 RETURN JUMPDEST PUSH1 0x40 MLOAD PUSH3 0x461BCD PUSH1 0xE5 SHL DUP2 MSTORE PUSH1 0x20 PUSH1 0x4 DUP3 ADD MSTORE PUSH1 0xF PUSH1 0x24 DUP3 ADD MSTORE PUSH15 0x496E76616C69642061646472657373 PUSH1 0x88 SHL PUSH1 0x44 DUP3 ADD MSTORE PUSH1 0x64 SWAP1 REVERT JUMPDEST CALLVALUE PUSH2 0x2EF JUMPI PUSH1 0x0 CALLDATASIZE PUSH1 0x3 NOT ADD SLT PUSH2 0x2EF JUMPI PUSH1 0x8 SLOAD PUSH1 0x40 MLOAD PUSH1 0x1 PUSH1 0x1 PUSH1 0xA0 SHL SUB SWAP1 SWAP2 AND DUP2 MSTORE PUSH1 0x20 SWAP1 RETURN JUMPDEST CALLVALUE PUSH2 0x2EF JUMPI PUSH1 0x20 CALLDATASIZE PUSH1 0x3 NOT ADD SLT PUSH2 0x2EF JUMPI PUSH1 0x4 CALLDATALOAD PUSH1 0x0 DUP2 DUP2 MSTORE PUSH1 0x3 PUSH1 0x20 MSTORE PUSH1 0x40 SWAP1 KECCAK256 SLOAD PUSH1 0x1 PUSH1 0x1 PUSH1 0xA0 SHL SUB AND CALLER SUB PUSH2 0x2DD JUMPI DUP1 PUSH1 0x0 MSTORE PUSH1 0x3 PUSH1 0x20 MSTORE PUSH1 0x9 PUSH1 0x40 PUSH1 0x0 KECCAK256 ADD PUSH1 0x1 PUSH1 0xFF NOT DUP3 SLOAD AND OR SWAP1 SSTORE PUSH32 0x62637348B7E22EC324516E93125A967308EFD1559B84D505BF18E582255B2053 PUSH1 0x0 DUP1 LOG2 STOP JUMPDEST CALLVALUE PUSH2 0x2EF JUMPI PUSH1 0x20 DUP1 PUSH1 0x3 NOT CALLDATASIZE ADD SLT PUSH2 0x2EF JUMPI PUSH1 0x4 CALLDATALOAD PUSH1 0x0 MSTORE PUSH1 0x4 DUP2 MSTORE PUSH1 0x40 PUSH1 0x0 KECCAK256 SWAP1 DUP2 SLOAD PUSH8 0xFFFFFFFFFFFFFFFF DUP2 GT PUSH2 0x5B7 JUMPI PUSH1 0x40 MLOAD SWAP1 PUSH1 0x5 PUSH2 0x4E1 DUP5 DUP4 DUP4 SHL ADD DUP5 PUSH2 0x1BD8 JUMP JUMPDEST DUP2 DUP4 MSTORE DUP4 DUP4 ADD DUP1 SWAP6 PUSH1 0x0 MSTORE DUP5 PUSH1 0x0 KECCAK256 PUSH1 0x0 SWAP2 JUMPDEST DUP5 DUP4 LT PUSH2 0x567 JUMPI PUSH1 0x40 DUP1 MLOAD DUP9 DUP2 MSTORE DUP8 MLOAD DUP2 DUP11 ADD DUP2 SWAP1 MSTORE DUP11 SWAP3 DUP3 ADD SWAP1 DUP11 PUSH1 0x0 JUMPDEST DUP3 DUP2 LT PUSH2 0x520 JUMPI DUP5 DUP5 SUB DUP6 RETURN JUMPDEST DUP6 MLOAD DUP1 MLOAD DUP6 MSTORE DUP1 DUP4 ADD MLOAD PUSH1 0x1 PUSH1 0x1 PUSH1 0xA0 SHL SUB AND DUP6 DUP5 ADD MSTORE PUSH1 0x40 DUP1 DUP3 ADD MLOAD SWAP1 DUP7 ADD MSTORE PUSH1 0x60 DUP1 DUP3 ADD MLOAD SWAP1 DUP7 ADD MSTORE PUSH1 0x80 SWAP1 DUP2 ADD MLOAD SWAP1 DUP6 ADD MSTORE SWAP5 DUP2 ADD SWAP5 PUSH1 0xA0 SWAP1 SWAP4 ADD SWAP3 PUSH1 0x1 ADD PUSH2 0x513 JUMP JUMPDEST DUP4 DUP8 PUSH1 0x1 SWAP3 PUSH1 0x40 MLOAD PUSH2 0x578 DUP2 PUSH2 0x1BA0 JUMP JUMPDEST DUP6 SLOAD DUP2 MSTORE DUP5 DUP1 PUSH1 0xA0 SHL SUB DUP6 DUP8 ADD SLOAD AND DUP4 DUP3 ADD MSTORE PUSH1 0x2 DUP7 ADD SLOAD PUSH1 0x40 DUP3 ADD MSTORE PUSH1 0x3 DUP7 ADD SLOAD PUSH1 0x60 DUP3 ADD MSTORE PUSH1 0x4 DUP7 ADD SLOAD PUSH1 0x80 DUP3 ADD MSTORE DUP2 MSTORE ADD SWAP3 ADD SWAP3 ADD SWAP2 SWAP1 PUSH2 0x4F4 JUMP JUMPDEST PUSH4 0x4E487B71 PUSH1 0xE0 SHL PUSH1 0x0 MSTORE PUSH1 0x41 PUSH1 0x4 MSTORE PUSH1 0x24 PUSH1 0x0 REVERT JUMPDEST CALLVALUE PUSH2 0x2EF JUMPI PUSH1 0x20 CALLDATASIZE PUSH1 0x3 NOT ADD SLT PUSH2 0x2EF JUMPI PUSH1 0x4 CALLDATALOAD PUSH2 0x5E9 PUSH2 0x1C69 JUMP JUMPDEST PUSH2 0x1F4 DUP2 GT PUSH2 0x5F7 JUMPI PUSH1 0x7 SSTORE STOP JUMPDEST PUSH1 0x40 MLOAD PUSH3 0x461BCD PUSH1 0xE5 SHL DUP2 MSTORE PUSH1 0x20 PUSH1 0x4 DUP3 ADD MSTORE PUSH1 0xC PUSH1 0x24 DUP3 ADD MSTORE PUSH12 0x8CCACA40E8DEDE40D0D2CED PUSH1 0xA3 SHL PUSH1 0x44 DUP3 ADD MSTORE PUSH1 0x64 SWAP1 REVERT JUMPDEST CALLVALUE PUSH2 0x2EF JUMPI PUSH1 0xE0 CALLDATASIZE PUSH1 0x3 NOT ADD SLT PUSH2 0x2EF JUMPI PUSH8 0xFFFFFFFFFFFFFFFF PUSH1 0x4 CALLDATALOAD PUSH1 0x24 CALLDATALOAD DUP3 DUP2 GT PUSH2 0x2EF JUMPI PUSH2 0x660 SWAP1 CALLDATASIZE SWAP1 PUSH1 0x4 ADD PUSH2 0x1C12 JUMP JUMPDEST SWAP2 PUSH1 0x44 CALLDATALOAD DUP2 DUP2 GT PUSH2 0x2EF JUMPI PUSH2 0x679 SWAP1 CALLDATASIZE SWAP1 PUSH1 0x4 ADD PUSH2 0x1C12 JUMP JUMPDEST PUSH1 0x84 CALLDATALOAD PUSH1 0x6 DUP2 LT ISZERO PUSH2 0x2EF JUMPI PUSH1 0x1 PUSH1 0x1 PUSH1 0xA0 SHL SUB SWAP5 PUSH1 0xA4 CALLDATALOAD DUP7 DUP2 AND SWAP1 DUP2 SWAP1 SUB PUSH2 0x2EF JUMPI PUSH1 0xC4 CALLDATALOAD SWAP5 DUP7 PUSH1 0x0 MSTORE PUSH1 0x20 SWAP8 PUSH1 0x3 DUP10 MSTORE PUSH1 0x40 PUSH1 0x0 KECCAK256 SLOAD AND CALLER SUB PUSH2 0x2DD JUMPI DUP7 PUSH1 0x0 MSTORE PUSH1 0x3 DUP9 MSTORE PUSH1 0x40 PUSH1 0x0 KECCAK256 SWAP5 PUSH1 0xFF PUSH1 0x9 DUP8 ADD SLOAD AND ISZERO PUSH2 0xA37 JUMPI PUSH1 0x0 SWAP4 DUP1 MLOAD DUP1 PUSH2 0x93E JUMPI JUMPDEST POP POP DUP1 MLOAD SWAP1 DUP2 PUSH2 0x83D JUMPI JUMPDEST POP POP POP PUSH1 0x64 CALLDATALOAD DUP1 PUSH2 0x832 JUMPI JUMPDEST POP DUP1 PUSH2 0x817 JUMPI JUMPDEST POP PUSH1 0x6 DUP4 ADD SWAP2 DUP1 PUSH1 0xFF DUP5 SLOAD AND PUSH2 0x711 DUP3 PUSH2 0x1A68 JUMP JUMPDEST PUSH2 0x71A DUP2 PUSH2 0x1A68 JUMP JUMPDEST SUB PUSH2 0x804 JUMPI JUMPDEST POP DUP4 PUSH2 0x7BC JUMPI JUMPDEST PUSH32 0x56A26AA0DDF2E8773D894B84CF8F90EA5D41333E3868DA172CBAF7B068D27FF2 SWAP4 POP PUSH2 0x78C JUMPI JUMPDEST PUSH1 0xFF PUSH1 0x5 DUP4 ADD SLOAD SWAP2 SLOAD AND SWAP1 PUSH2 0x772 PUSH1 0x40 MLOAD SWAP4 PUSH1 0x60 DUP6 MSTORE PUSH1 0x1 PUSH1 0x60 DUP7 ADD SWAP2 ADD PUSH2 0x1B0A JUMP JUMPDEST SWAP6 DUP4 ADD MSTORE PUSH2 0x77F DUP2 PUSH2 0x1A68 JUMP JUMPDEST PUSH1 0x40 DUP3 ADD MSTORE DUP1 CALLER SWAP5 SUB SWAP1 LOG3 STOP JUMPDEST PUSH1 0xA DUP3 ADD SLOAD PUSH2 0x7A4 JUMPI PUSH1 0x7 DUP3 ADD SLOAD PUSH1 0x8 DUP4 ADD SSTORE PUSH2 0x74F JUMP JUMPDEST PUSH2 0x7B2 PUSH1 0xFF DUP3 SLOAD AND TIMESTAMP PUSH2 0x1D16 JUMP JUMPDEST PUSH1 0x8 DUP4 ADD SSTORE PUSH2 0x74F JUMP JUMPDEST POP TIMESTAMP DUP4 LT PUSH2 0x7F2 JUMPI PUSH32 0x56A26AA0DDF2E8773D894B84CF8F90EA5D41333E3868DA172CBAF7B068D27FF2 SWAP3 PUSH1 0x7 DUP4 ADD SSTORE PUSH1 0x1 PUSH2 0x727 JUMP JUMPDEST PUSH1 0x40 MLOAD PUSH4 0xBF784C7 PUSH1 0xE0 SHL DUP2 MSTORE PUSH1 0x4 SWAP1 REVERT JUMPDEST PUSH2 0x80F SWAP2 POP DUP3 PUSH2 0x1CBB JUMP JUMPDEST PUSH1 0x1 DUP7 PUSH2 0x720 JUMP JUMPDEST PUSH1 0x4 DUP5 ADD DUP1 SLOAD PUSH1 0x1 PUSH1 0x1 PUSH1 0xA0 SHL SUB NOT AND SWAP1 SWAP2 OR SWAP1 SSTORE DUP7 PUSH2 0x6FC JUMP JUMPDEST PUSH1 0x5 DUP6 ADD SSTORE DUP8 PUSH2 0x6F5 JUMP JUMPDEST PUSH1 0x3 DUP8 ADD SWAP3 DUP3 GT PUSH2 0x5B7 JUMPI DUP2 SWAP1 PUSH2 0x854 DUP5 SLOAD PUSH2 0x1AD0 JUMP JUMPDEST DUP12 PUSH1 0x1F DUP3 GT PUSH2 0x902 JUMPI JUMPDEST POP POP DUP11 SWAP1 PUSH1 0x1F DUP4 GT PUSH1 0x1 EQ PUSH2 0x89D JUMPI PUSH1 0x0 SWAP3 PUSH2 0x892 JUMPI JUMPDEST POP POP DUP2 PUSH1 0x1 SHL SWAP2 PUSH1 0x0 NOT SWAP1 PUSH1 0x3 SHL SHR NOT AND OR SWAP1 SSTORE JUMPDEST DUP8 DUP1 DUP1 PUSH2 0x6E9 JUMP JUMPDEST ADD MLOAD SWAP1 POP DUP11 DUP1 PUSH2 0x875 JUMP JUMPDEST PUSH1 0x0 DUP6 DUP2 MSTORE DUP13 DUP2 KECCAK256 SWAP4 POP PUSH1 0x1F NOT DUP6 AND SWAP1 JUMPDEST DUP14 DUP3 DUP3 LT PUSH2 0x8EC JUMPI POP POP SWAP1 DUP5 PUSH1 0x1 SWAP6 SWAP5 SWAP4 SWAP3 LT PUSH2 0x8D3 JUMPI JUMPDEST POP POP POP DUP2 SHL ADD SWAP1 SSTORE PUSH2 0x88A JUMP JUMPDEST ADD MLOAD PUSH1 0x0 NOT PUSH1 0xF8 DUP5 PUSH1 0x3 SHL AND SHR NOT AND SWAP1 SSTORE DUP11 DUP1 DUP1 PUSH2 0x8C6 JUMP JUMPDEST PUSH1 0x1 DUP6 SWAP7 DUP3 SWAP4 SWAP7 DUP7 ADD MLOAD DUP2 SSTORE ADD SWAP6 ADD SWAP4 ADD PUSH2 0x8AE JUMP JUMPDEST PUSH2 0x92D SWAP2 DUP7 PUSH1 0x0 MSTORE DUP2 PUSH1 0x0 KECCAK256 SWAP1 PUSH1 0x1F DUP7 ADD PUSH1 0x5 SHR DUP3 ADD SWAP3 DUP7 LT PUSH2 0x934 JUMPI JUMPDEST PUSH1 0x1F ADD PUSH1 0x5 SHR ADD SWAP1 PUSH2 0x1CA4 JUMP JUMPDEST DUP12 DUP12 PUSH2 0x85E JUMP JUMPDEST SWAP1 SWAP2 POP DUP2 SWAP1 PUSH2 0x920 JUMP JUMPDEST PUSH1 0x1 DUP9 ADD SWAP2 DUP5 DUP3 GT PUSH2 0x5B7 JUMPI DUP2 SWAP1 PUSH2 0x956 DUP5 SLOAD PUSH2 0x1AD0 JUMP JUMPDEST DUP14 PUSH1 0x1F DUP3 GT PUSH2 0xA06 JUMPI JUMPDEST POP POP DUP13 SWAP1 DUP14 PUSH1 0x1F DUP5 GT PUSH1 0x1 EQ PUSH2 0x9A0 JUMPI POP PUSH1 0x0 SWAP3 PUSH2 0x995 JUMPI JUMPDEST POP POP DUP2 PUSH1 0x1 SHL SWAP2 PUSH1 0x0 NOT SWAP1 PUSH1 0x3 SHL SHR NOT AND OR SWAP1 SSTORE JUMPDEST DUP10 DUP1 PUSH2 0x6DE JUMP JUMPDEST ADD MLOAD SWAP1 POP DUP13 DUP1 PUSH2 0x979 JUMP JUMPDEST PUSH1 0x0 DUP7 DUP2 MSTORE DUP2 DUP2 KECCAK256 SWAP5 POP PUSH1 0x1F NOT DUP7 AND SWAP2 JUMPDEST DUP3 DUP3 LT PUSH2 0x9EE JUMPI POP POP SWAP1 DUP5 PUSH1 0x1 SWAP6 SWAP5 SWAP4 SWAP3 LT PUSH2 0x9D5 JUMPI JUMPDEST POP POP POP DUP2 SHL ADD SWAP1 SSTORE PUSH2 0x98E JUMP JUMPDEST ADD MLOAD PUSH1 0x0 NOT PUSH1 0xF8 DUP5 PUSH1 0x3 SHL AND SHR NOT AND SWAP1 SSTORE DUP13 DUP1 DUP1 PUSH2 0x9C8 JUMP JUMPDEST DUP1 PUSH1 0x1 DUP7 SWAP8 DUP3 SWAP5 SWAP8 DUP8 ADD MLOAD DUP2 SSTORE ADD SWAP7 ADD SWAP5 ADD SWAP1 PUSH2 0x9B1 JUMP JUMPDEST PUSH2 0xA30 SWAP2 DUP7 PUSH1 0x0 MSTORE DUP2 PUSH1 0x0 KECCAK256 SWAP1 PUSH1 0x1F DUP7 ADD PUSH1 0x5 SHR DUP3 ADD SWAP3 DUP7 LT PUSH2 0x934 JUMPI PUSH1 0x1F ADD PUSH1 0x5 SHR ADD SWAP1 PUSH2 0x1CA4 JUMP JUMPDEST DUP14 DUP14 PUSH2 0x960 JUMP JUMPDEST PUSH1 0x40 MLOAD PUSH4 0x2437E771 PUSH1 0xE1 SHL DUP2 MSTORE PUSH1 0x4 SWAP1 REVERT JUMPDEST CALLVALUE PUSH2 0x2EF JUMPI PUSH1 0x0 CALLDATASIZE PUSH1 0x3 NOT ADD SLT PUSH2 0x2EF JUMPI PUSH1 0x0 SLOAD PUSH1 0x40 MLOAD PUSH1 0x1 PUSH1 0x1 PUSH1 0xA0 SHL SUB SWAP1 SWAP2 AND DUP2 MSTORE PUSH1 0x20 SWAP1 RETURN JUMPDEST CALLVALUE PUSH2 0x2EF JUMPI PUSH1 0xE0 CALLDATASIZE PUSH1 0x3 NOT ADD SLT PUSH2 0x2EF JUMPI PUSH1 0x4 CALLDATALOAD PUSH8 0xFFFFFFFFFFFFFFFF DUP2 GT PUSH2 0x2EF JUMPI PUSH2 0xAA3 SWAP1 CALLDATASIZE SWAP1 PUSH1 0x4 ADD PUSH2 0x1C12 JUMP JUMPDEST PUSH1 0x6 PUSH1 0x24 CALLDATALOAD LT ISZERO PUSH2 0x2EF JUMPI PUSH1 0x44 CALLDATALOAD PUSH8 0xFFFFFFFFFFFFFFFF DUP2 GT PUSH2 0x2EF JUMPI PUSH2 0xACE SWAP1 CALLDATASIZE SWAP1 PUSH1 0x4 ADD PUSH2 0x1C12 JUMP JUMPDEST PUSH1 0x64 CALLDATALOAD SWAP1 PUSH1 0x1 PUSH1 0x1 PUSH1 0xA0 SHL SUB DUP3 AND DUP3 SUB PUSH2 0x2EF JUMPI PUSH1 0x6 PUSH1 0xA4 CALLDATALOAD LT ISZERO PUSH2 0x2EF JUMPI PUSH2 0xAF5 PUSH2 0x1CD3 JUMP JUMPDEST DUP3 MLOAD ISZERO PUSH2 0xFB3 JUMPI PUSH1 0x1 PUSH1 0x1 PUSH1 0xA0 SHL SUB DUP3 AND ISZERO PUSH2 0xFA1 JUMPI PUSH1 0x84 CALLDATALOAD ISZERO PUSH2 0xF8F JUMPI PUSH3 0x15180 TIMESTAMP MOD TIMESTAMP SUB TIMESTAMP DUP2 GT PUSH2 0x2C7 JUMPI PUSH1 0xC4 CALLDATALOAD LT PUSH2 0x7F2 JUMPI PUSH2 0xB35 PUSH1 0x6 SLOAD PUSH2 0x1C95 JUMP JUMPDEST SWAP2 DUP3 PUSH1 0x6 SSTORE PUSH1 0x40 MLOAD SWAP2 DUP3 PUSH2 0x1A0 DUP2 ADD LT PUSH8 0xFFFFFFFFFFFFFFFF PUSH2 0x1A0 DUP6 ADD GT OR PUSH2 0x5B7 JUMPI PUSH2 0x1A0 DUP4 ADD PUSH1 0x40 MSTORE CALLER DUP4 MSTORE DUP5 PUSH1 0x20 DUP5 ADD MSTORE PUSH2 0xB75 PUSH1 0x24 CALLDATALOAD PUSH2 0x1A68 JUMP JUMPDEST PUSH1 0x24 CALLDATALOAD PUSH1 0x40 DUP5 ADD MSTORE PUSH1 0x60 DUP4 ADD MSTORE PUSH1 0x1 PUSH1 0x1 PUSH1 0xA0 SHL SUB AND PUSH1 0x80 DUP3 ADD MSTORE PUSH1 0x84 CALLDATALOAD PUSH1 0xA0 DUP3 ADD MSTORE PUSH2 0xBA3 PUSH1 0xA4 CALLDATALOAD PUSH2 0x1A68 JUMP JUMPDEST PUSH1 0xA4 CALLDATALOAD PUSH1 0xC0 DUP3 ADD MSTORE PUSH1 0xC4 CALLDATALOAD PUSH1 0xE0 DUP3 ADD MSTORE PUSH1 0xC4 CALLDATALOAD PUSH2 0x100 DUP3 ADD MSTORE PUSH1 0x1 PUSH2 0x120 DUP3 ADD MSTORE PUSH1 0x0 PUSH2 0x140 DUP3 ADD MSTORE PUSH1 0x0 PUSH2 0x160 DUP3 ADD MSTORE TIMESTAMP PUSH2 0x180 DUP3 ADD MSTORE DUP2 PUSH1 0x0 MSTORE PUSH1 0x3 PUSH1 0x20 MSTORE PUSH1 0x40 PUSH1 0x0 KECCAK256 SWAP1 PUSH1 0x1 DUP1 PUSH1 0xA0 SHL SUB DUP2 MLOAD AND PUSH1 0x1 PUSH1 0x1 PUSH1 0x60 SHL SUB PUSH1 0xA0 SHL DUP4 SLOAD AND OR DUP3 SSTORE PUSH1 0x20 DUP2 ADD MLOAD DUP1 MLOAD SWAP1 PUSH8 0xFFFFFFFFFFFFFFFF DUP3 GT PUSH2 0x5B7 JUMPI DUP2 SWAP1 PUSH2 0xC2B PUSH1 0x1 DUP7 ADD SLOAD PUSH2 0x1AD0 JUMP JUMPDEST PUSH1 0x1F DUP2 GT PUSH2 0xF5A JUMPI JUMPDEST POP PUSH1 0x20 SWAP1 PUSH1 0x1F DUP4 GT PUSH1 0x1 EQ PUSH2 0xEE8 JUMPI PUSH1 0x0 SWAP3 PUSH2 0xEDD JUMPI JUMPDEST POP POP DUP2 PUSH1 0x1 SHL SWAP2 PUSH1 0x0 NOT SWAP1 PUSH1 0x3 SHL SHR NOT AND OR PUSH1 0x1 DUP4 ADD SSTORE JUMPDEST PUSH1 0x40 DUP2 ADD MLOAD PUSH2 0xC71 DUP2 PUSH2 0x1A68 JUMP JUMPDEST PUSH2 0xC7A DUP2 PUSH2 0x1A68 JUMP JUMPDEST PUSH1 0xFF DUP1 NOT PUSH1 0x2 DUP6 ADD SLOAD AND SWAP2 AND OR PUSH1 0x2 DUP4 ADD SSTORE PUSH1 0x60 DUP2 ADD MLOAD DUP1 MLOAD SWAP1 PUSH8 0xFFFFFFFFFFFFFFFF DUP3 GT PUSH2 0x5B7 JUMPI PUSH2 0xCB0 PUSH1 0x3 DUP6 ADD SLOAD PUSH2 0x1AD0 JUMP JUMPDEST PUSH1 0x1F DUP2 GT PUSH2 0xEA8 JUMPI JUMPDEST POP PUSH1 0x20 SWAP1 PUSH1 0x1F DUP4 GT PUSH1 0x1 EQ PUSH2 0xE32 JUMPI SWAP2 DUP1 PUSH1 0xC SWAP5 SWAP3 PUSH2 0x180 SWAP5 PUSH1 0x0 SWAP3 PUSH2 0xE27 JUMPI JUMPDEST POP POP DUP2 PUSH1 0x1 SHL SWAP2 PUSH1 0x0 NOT SWAP1 PUSH1 0x3 SHL SHR NOT AND OR PUSH1 0x3 DUP6 ADD SSTORE JUMPDEST PUSH1 0x4 DUP5 ADD PUSH1 0x1 DUP1 PUSH1 0xA0 SHL SUB PUSH1 0x80 DUP4 ADD MLOAD AND PUSH1 0x1 PUSH1 0x1 PUSH1 0x60 SHL SUB PUSH1 0xA0 SHL DUP3 SLOAD AND OR SWAP1 SSTORE PUSH1 0xA0 DUP2 ADD MLOAD PUSH1 0x5 DUP6 ADD SSTORE PUSH2 0xD38 PUSH1 0xC0 DUP3 ADD MLOAD PUSH2 0xD2F DUP2 PUSH2 0x1A68 JUMP JUMPDEST PUSH1 0x6 DUP7 ADD PUSH2 0x1CBB JUMP JUMPDEST PUSH1 0xE0 DUP2 ADD MLOAD PUSH1 0x7 DUP6 ADD SSTORE PUSH2 0x100 DUP2 ADD MLOAD PUSH1 0x8 DUP6 ADD SSTORE PUSH1 0x9 DUP5 ADD PUSH2 0x120 DUP3 ADD MLOAD ISZERO ISZERO PUSH1 0xFF DUP1 NOT DUP4 SLOAD AND SWAP2 AND OR SWAP1 SSTORE PUSH2 0x140 DUP2 ADD MLOAD PUSH1 0xA DUP6 ADD SSTORE PUSH2 0x160 DUP2 ADD MLOAD PUSH1 0xB DUP6 ADD SSTORE ADD MLOAD SWAP2 ADD SSTORE CALLER PUSH1 0x0 MSTORE PUSH1 0x5 PUSH1 0x20 MSTORE PUSH1 0x40 PUSH1 0x0 KECCAK256 SWAP2 DUP3 SLOAD SWAP3 PUSH1 0x1 PUSH1 0x40 SHL DUP5 LT ISZERO PUSH2 0x5B7 JUMPI DUP3 PUSH2 0x26E DUP6 PUSH2 0xDB4 SWAP4 PUSH1 0x1 PUSH1 0x20 SWAP9 ADD DUP2 SSTORE PUSH2 0x1BFA JUMP JUMPDEST DUP2 PUSH32 0x3F2BC73D296D889F39A6FA23784EE04C8AE02D6E7D058DBADE830A3A0E10282D PUSH2 0xDEB PUSH1 0x40 MLOAD SWAP4 PUSH1 0x80 DUP6 MSTORE PUSH1 0x80 DUP6 ADD SWAP1 PUSH2 0x1A28 JUMP JUMPDEST SWAP3 PUSH2 0xDF7 PUSH1 0x24 CALLDATALOAD PUSH2 0x1A68 JUMP JUMPDEST PUSH1 0x24 CALLDATALOAD DUP7 DUP3 ADD MSTORE PUSH2 0xE09 PUSH1 0xA4 CALLDATALOAD PUSH2 0x1A68 JUMP JUMPDEST PUSH1 0xA4 CALLDATALOAD PUSH1 0x40 DUP3 ADD MSTORE PUSH1 0x84 CALLDATALOAD PUSH1 0x60 DUP3 ADD MSTORE DUP1 CALLER SWAP5 SUB SWAP1 LOG3 PUSH1 0x40 MLOAD SWAP1 DUP2 MSTORE RETURN JUMPDEST ADD MLOAD SWAP1 POP DUP9 DUP1 PUSH2 0xCDA JUMP JUMPDEST SWAP1 PUSH1 0x3 DUP6 ADD PUSH1 0x0 MSTORE PUSH1 0x20 PUSH1 0x0 KECCAK256 SWAP2 PUSH1 0x0 JUMPDEST PUSH1 0x1F NOT DUP6 AND DUP2 LT PUSH2 0xE90 JUMPI POP SWAP3 PUSH1 0xC SWAP5 SWAP3 PUSH1 0x1 SWAP3 PUSH2 0x180 SWAP6 DUP4 PUSH1 0x1F NOT DUP2 AND LT PUSH2 0xE77 JUMPI JUMPDEST POP POP POP DUP2 SHL ADD PUSH1 0x3 DUP6 ADD SSTORE PUSH2 0xCF2 JUMP JUMPDEST ADD MLOAD PUSH1 0x0 NOT PUSH1 0xF8 DUP5 PUSH1 0x3 SHL AND SHR NOT AND SWAP1 SSTORE DUP9 DUP1 DUP1 PUSH2 0xE67 JUMP JUMPDEST SWAP2 SWAP3 PUSH1 0x20 PUSH1 0x1 DUP2 SWAP3 DUP7 DUP6 ADD MLOAD DUP2 SSTORE ADD SWAP5 ADD SWAP3 ADD PUSH2 0xE43 JUMP JUMPDEST PUSH2 0xED7 SWAP1 PUSH1 0x3 DUP7 ADD PUSH1 0x0 MSTORE PUSH1 0x20 PUSH1 0x0 KECCAK256 PUSH1 0x1F DUP6 ADD PUSH1 0x5 SHR DUP2 ADD SWAP2 PUSH1 0x20 DUP7 LT PUSH2 0x934 JUMPI PUSH1 0x1F ADD PUSH1 0x5 SHR ADD SWAP1 PUSH2 0x1CA4 JUMP JUMPDEST DUP7 PUSH2 0xCB9 JUMP JUMPDEST ADD MLOAD SWAP1 POP DUP7 DUP1 PUSH2 0xC4B JUMP JUMPDEST SWAP3 POP PUSH1 0x1 DUP6 ADD PUSH1 0x0 MSTORE PUSH1 0x20 PUSH1 0x0 KECCAK256 SWAP1 PUSH1 0x0 SWAP4 JUMPDEST PUSH1 0x1F NOT DUP5 AND DUP6 LT PUSH2 0xF3F JUMPI PUSH1 0x1 SWAP5 POP DUP4 PUSH1 0x1F NOT DUP2 AND LT PUSH2 0xF26 JUMPI JUMPDEST POP POP POP DUP2 SHL ADD PUSH1 0x1 DUP4 ADD SSTORE PUSH2 0xC63 JUMP JUMPDEST ADD MLOAD PUSH1 0x0 NOT PUSH1 0xF8 DUP5 PUSH1 0x3 SHL AND SHR NOT AND SWAP1 SSTORE DUP7 DUP1 DUP1 PUSH2 0xF16 JUMP JUMPDEST DUP2 DUP2 ADD MLOAD DUP4 SSTORE PUSH1 0x20 SWAP5 DUP6 ADD SWAP5 PUSH1 0x1 SWAP1 SWAP4 ADD SWAP3 SWAP1 SWAP2 ADD SWAP1 PUSH2 0xEFB JUMP JUMPDEST PUSH2 0xF89 SWAP1 PUSH1 0x1 DUP8 ADD PUSH1 0x0 MSTORE PUSH1 0x20 PUSH1 0x0 KECCAK256 PUSH1 0x1F DUP6 ADD PUSH1 0x5 SHR DUP2 ADD SWAP2 PUSH1 0x20 DUP7 LT PUSH2 0x934 JUMPI PUSH1 0x1F ADD PUSH1 0x5 SHR ADD SWAP1 PUSH2 0x1CA4 JUMP JUMPDEST DUP8 PUSH2 0xC34 JUMP JUMPDEST PUSH1 0x40 MLOAD PUSH4 0x162908E3 PUSH1 0xE1 SHL DUP2 MSTORE PUSH1 0x4 SWAP1 REVERT JUMPDEST PUSH1 0x40 MLOAD PUSH4 0x4E469669 PUSH1 0xE1 SHL DUP2 MSTORE PUSH1 0x4 SWAP1 REVERT JUMPDEST PUSH1 0x40 MLOAD PUSH4 0x430F13B3 PUSH1 0xE0 SHL DUP2 MSTORE PUSH1 0x4 SWAP1 REVERT JUMPDEST CALLVALUE PUSH2 0x2EF JUMPI PUSH1 0x0 CALLDATASIZE PUSH1 0x3 NOT ADD SLT PUSH2 0x2EF JUMPI PUSH2 0xFDE PUSH2 0x1C69 JUMP JUMPDEST PUSH2 0xFE6 PUSH2 0x1CD3 JUMP JUMPDEST PUSH1 0x1 PUSH1 0xFF NOT PUSH1 0x2 SLOAD AND OR PUSH1 0x2 SSTORE PUSH32 0x62E78CEA01BEE320CD4E420270B5EA74000D11B0C9F74754EBDBFC544B05A258 PUSH1 0x20 PUSH1 0x40 MLOAD CALLER DUP2 MSTORE LOG1 STOP JUMPDEST CALLVALUE PUSH2 0x2EF JUMPI PUSH1 0x0 CALLDATASIZE PUSH1 0x3 NOT ADD SLT PUSH2 0x2EF JUMPI PUSH2 0x1038 PUSH2 0x1C69 JUMP JUMPDEST PUSH1 0x0 DUP1 SLOAD PUSH1 0x1 PUSH1 0x1 PUSH1 0xA0 SHL SUB NOT DUP2 AND DUP3 SSTORE PUSH1 0x1 PUSH1 0x1 PUSH1 0xA0 SHL SUB AND PUSH32 0x8BE0079C531659141344CD1FD0A4F28419497F9722A3DAAFE3B4186F6B6457E0 DUP3 DUP1 LOG3 STOP JUMPDEST CALLVALUE PUSH2 0x2EF JUMPI PUSH1 0x20 CALLDATASIZE PUSH1 0x3 NOT ADD SLT PUSH2 0x2EF JUMPI PUSH1 0x4 CALLDATALOAD PUSH1 0x0 DUP2 DUP2 MSTORE PUSH1 0x3 PUSH1 0x20 MSTORE PUSH1 0x40 SWAP1 KECCAK256 SLOAD PUSH1 0x1 PUSH1 0x1 PUSH1 0xA0 SHL SUB AND CALLER SUB PUSH2 0x2DD JUMPI DUP1 PUSH1 0x0 MSTORE PUSH1 0x3 PUSH1 0x20 MSTORE PUSH1 0x9 PUSH1 0x40 PUSH1 0x0 KECCAK256 ADD PUSH1 0xFF NOT DUP2 SLOAD AND SWAP1 SSTORE PUSH32 0x5561EB580AF870FBF8B9A0506A6EBE92E64C9182EDBA8560CAC1BAB55B908A94 PUSH1 0x0 DUP1 LOG2 STOP JUMPDEST CALLVALUE PUSH2 0x2EF JUMPI PUSH1 0x0 CALLDATASIZE PUSH1 0x3 NOT ADD SLT PUSH2 0x2EF JUMPI PUSH1 0x20 PUSH1 0x6 SLOAD PUSH1 0x40 MLOAD SWAP1 DUP2 MSTORE RETURN JUMPDEST CALLVALUE PUSH2 0x2EF JUMPI PUSH1 0x0 CALLDATASIZE PUSH1 0x3 NOT ADD SLT PUSH2 0x2EF JUMPI PUSH1 0x20 PUSH1 0xFF PUSH1 0x2 SLOAD AND PUSH1 0x40 MLOAD SWAP1 ISZERO ISZERO DUP2 MSTORE RETURN JUMPDEST CALLVALUE PUSH2 0x2EF JUMPI PUSH1 0x40 CALLDATASIZE PUSH1 0x3 NOT ADD SLT PUSH2 0x2EF JUMPI PUSH2 0x1144 PUSH2 0x1A88 JUMP JUMPDEST PUSH1 0x1 PUSH1 0x1 PUSH1 0xA0 SHL SUB AND PUSH1 0x0 SWAP1 DUP2 MSTORE PUSH1 0x5 PUSH1 0x20 MSTORE PUSH1 0x40 SWAP1 KECCAK256 DUP1 SLOAD PUSH1 0x24 CALLDATALOAD SWAP2 SWAP1 DUP3 LT ISZERO PUSH2 0x2EF JUMPI PUSH1 0x20 SWAP2 PUSH2 0x1175 SWAP2 PUSH2 0x1BFA JUMP JUMPDEST SWAP1 SLOAD PUSH1 0x40 MLOAD SWAP2 PUSH1 0x3 SHL SHR DUP2 MSTORE RETURN JUMPDEST CALLVALUE PUSH2 0x2EF JUMPI PUSH1 0x20 CALLDATASIZE PUSH1 0x3 NOT ADD SLT PUSH2 0x2EF JUMPI PUSH1 0x4 CALLDATALOAD PUSH1 0x0 SWAP1 DUP2 MSTORE PUSH1 0x3 PUSH1 0x20 MSTORE PUSH1 0x40 SWAP1 DUP2 SWAP1 KECCAK256 DUP1 SLOAD SWAP2 MLOAD SWAP2 PUSH1 0x1 PUSH1 0x1 PUSH1 0xA0 SHL SUB SWAP1 DUP2 AND SWAP2 DUP4 PUSH2 0x11C6 DUP2 PUSH1 0x1 DUP5 ADD PUSH2 0x1B0A JUMP JUMPDEST SUB PUSH2 0x11D1 SWAP1 DUP6 PUSH2 0x1BD8 JUMP JUMPDEST PUSH1 0x2 DUP2 ADD SLOAD PUSH1 0xFF AND SWAP1 PUSH1 0x40 MLOAD SWAP3 DUP4 DUP1 PUSH1 0x3 DUP5 ADD SWAP1 PUSH2 0x11EE SWAP2 PUSH2 0x1B0A JUMP JUMPDEST SUB PUSH2 0x11F9 SWAP1 DUP6 PUSH2 0x1BD8 JUMP JUMPDEST PUSH1 0x4 DUP3 ADD SLOAD AND SWAP3 PUSH1 0x5 DUP3 ADD SLOAD PUSH1 0x6 DUP4 ADD SLOAD PUSH1 0xFF AND PUSH1 0x7 DUP5 ADD SLOAD PUSH1 0x8 DUP6 ADD SLOAD SWAP2 PUSH1 0x9 DUP7 ADD SLOAD PUSH1 0xFF AND SWAP4 PUSH1 0xA DUP8 ADD SLOAD SWAP6 PUSH1 0xB DUP9 ADD SLOAD SWAP8 PUSH1 0xC ADD SLOAD SWAP9 PUSH1 0x40 MLOAD SWAP13 DUP14 SWAP13 DUP14 MSTORE DUP13 PUSH2 0x1A0 PUSH1 0x20 DUP2 SWAP3 ADD MSTORE DUP14 ADD PUSH2 0x124F SWAP2 PUSH2 0x1A28 JUMP JUMPDEST SWAP1 PUSH2 0x1259 DUP2 PUSH2 0x1A68 JUMP JUMPDEST PUSH1 0x40 DUP14 ADD MSTORE DUP12 DUP2 SUB PUSH1 0x60 DUP14 ADD MSTORE PUSH2 0x126F SWAP2 PUSH2 0x1A28 JUMP JUMPDEST SWAP9 PUSH1 0x80 DUP12 ADD MSTORE PUSH1 0xA0 DUP11 ADD MSTORE PUSH2 0x1283 DUP2 PUSH2 0x1A68 JUMP JUMPDEST PUSH1 0xC0 DUP10 ADD MSTORE PUSH1 0xE0 DUP9 ADD MSTORE PUSH2 0x100 DUP8 ADD MSTORE ISZERO ISZERO PUSH2 0x120 DUP7 ADD MSTORE PUSH2 0x140 DUP6 ADD MSTORE PUSH2 0x160 DUP5 ADD MSTORE PUSH2 0x180 DUP4 ADD MSTORE SUB SWAP1 RETURN JUMPDEST CALLVALUE PUSH2 0x2EF JUMPI PUSH1 0x40 CALLDATASIZE PUSH1 0x3 NOT ADD SLT PUSH2 0x2EF JUMPI PUSH1 0x24 CALLDATALOAD PUSH1 0x4 CALLDATALOAD PUSH1 0x0 MSTORE PUSH1 0x4 PUSH1 0x20 MSTORE PUSH1 0x40 PUSH1 0x0 KECCAK256 DUP1 SLOAD DUP3 LT ISZERO PUSH2 0x2EF JUMPI PUSH1 0xA0 SWAP2 PUSH2 0x12EA SWAP2 PUSH2 0x1A9E JUMP JUMPDEST POP DUP1 SLOAD SWAP1 PUSH1 0x1 DUP1 DUP5 SHL SUB PUSH1 0x1 DUP3 ADD SLOAD AND SWAP1 PUSH1 0x2 DUP2 ADD SLOAD PUSH1 0x4 PUSH1 0x3 DUP4 ADD SLOAD SWAP3 ADD SLOAD SWAP3 PUSH1 0x40 MLOAD SWAP5 DUP6 MSTORE PUSH1 0x20 DUP6 ADD MSTORE PUSH1 0x40 DUP5 ADD MSTORE PUSH1 0x60 DUP4 ADD MSTORE PUSH1 0x80 DUP3 ADD MSTORE RETURN JUMPDEST CALLVALUE PUSH2 0x2EF JUMPI PUSH1 0x0 CALLDATASIZE PUSH1 0x3 NOT ADD SLT PUSH2 0x2EF JUMPI PUSH2 0x1340 PUSH2 0x1C69 JUMP JUMPDEST PUSH1 0x2 SLOAD PUSH1 0xFF DUP2 AND ISZERO PUSH2 0x137F JUMPI PUSH1 0xFF NOT AND PUSH1 0x2 SSTORE PUSH32 0x5DB9EE0A495BF2E6FF9C91A7834C1BA4FDD244A5E8AA4E537BD38AEAE4B073AA PUSH1 0x20 PUSH1 0x40 MLOAD CALLER DUP2 MSTORE LOG1 STOP JUMPDEST PUSH1 0x40 MLOAD PUSH4 0x8DFC202B PUSH1 0xE0 SHL DUP2 MSTORE PUSH1 0x4 SWAP1 REVERT JUMPDEST CALLVALUE PUSH2 0x2EF JUMPI PUSH1 0x20 DUP1 PUSH1 0x3 NOT CALLDATASIZE ADD SLT PUSH2 0x2EF JUMPI PUSH1 0x1 PUSH1 0x1 PUSH1 0xA0 SHL SUB PUSH2 0x13B3 PUSH2 0x1A88 JUMP JUMPDEST AND PUSH1 0x0 MSTORE PUSH1 0x5 DUP2 MSTORE PUSH1 0x40 PUSH1 0x0 KECCAK256 PUSH1 0x40 MLOAD SWAP1 DUP2 DUP4 DUP3 SLOAD SWAP2 DUP3 DUP2 MSTORE ADD SWAP1 DUP2 SWAP3 PUSH1 0x0 MSTORE DUP5 PUSH1 0x0 KECCAK256 SWAP1 PUSH1 0x0 JUMPDEST DUP7 DUP3 DUP3 LT PUSH2 0x1431 JUMPI DUP7 DUP7 PUSH2 0x13F1 DUP3 DUP9 SUB DUP4 PUSH2 0x1BD8 JUMP JUMPDEST PUSH1 0x40 MLOAD SWAP3 DUP4 SWAP3 DUP2 DUP5 ADD SWAP1 DUP3 DUP6 MSTORE MLOAD DUP1 SWAP2 MSTORE PUSH1 0x40 DUP5 ADD SWAP3 SWAP2 PUSH1 0x0 JUMPDEST DUP3 DUP2 LT PUSH2 0x141A JUMPI POP POP POP POP SUB SWAP1 RETURN JUMPDEST DUP4 MLOAD DUP6 MSTORE DUP7 SWAP6 POP SWAP4 DUP2 ADD SWAP4 SWAP3 DUP2 ADD SWAP3 PUSH1 0x1 ADD PUSH2 0x140B JUMP JUMPDEST DUP4 SLOAD DUP6 MSTORE SWAP1 SWAP4 ADD SWAP3 PUSH1 0x1 SWAP3 DUP4 ADD SWAP3 ADD PUSH2 0x13DB JUMP JUMPDEST CALLVALUE PUSH2 0x2EF JUMPI PUSH1 0x20 CALLDATASIZE PUSH1 0x3 NOT ADD SLT PUSH2 0x2EF JUMPI PUSH1 0x4 CALLDATALOAD PUSH1 0x0 MSTORE PUSH1 0x3 PUSH1 0x20 MSTORE PUSH2 0x14D4 PUSH1 0x40 PUSH1 0x0 KECCAK256 PUSH1 0x1 DUP1 PUSH1 0xA0 SHL SUB DUP1 DUP3 SLOAD AND SWAP2 PUSH1 0xFF PUSH1 0x2 DUP3 ADD SLOAD AND SWAP2 PUSH1 0x4 DUP3 ADD SLOAD AND SWAP2 PUSH1 0x5 DUP3 ADD SLOAD PUSH1 0xFF PUSH1 0x6 DUP5 ADD SLOAD AND PUSH1 0x7 DUP5 ADD SLOAD PUSH1 0x8 DUP6 ADD SLOAD SWAP2 PUSH1 0xFF PUSH1 0x9 DUP8 ADD SLOAD AND SWAP4 PUSH2 0x1524 PUSH1 0xA DUP9 ADD SLOAD SWAP7 PUSH1 0x3 PUSH2 0x14EB PUSH1 0xB DUP12 ADD SLOAD SWAP11 PUSH1 0x40 MLOAD SWAP15 DUP16 DUP1 PUSH2 0x14CD DUP2 PUSH1 0x1 DUP7 ADD PUSH2 0x1B0A JUMP JUMPDEST SUB SWAP1 PUSH2 0x1BD8 JUMP JUMPDEST PUSH2 0x14E4 PUSH1 0x40 MLOAD DUP1 SWAP5 DUP2 SWAP4 ADD PUSH2 0x1B0A JUMP JUMPDEST SUB DUP3 PUSH2 0x1BD8 JUMP JUMPDEST PUSH2 0x1508 PUSH1 0x40 MLOAD SWAP14 DUP15 SWAP14 DUP15 MSTORE DUP14 PUSH2 0x180 SWAP1 DUP2 PUSH1 0x20 DUP3 ADD MSTORE ADD SWAP1 PUSH2 0x1A28 JUMP JUMPDEST SWAP2 PUSH2 0x1512 DUP2 PUSH2 0x1A68 JUMP JUMPDEST PUSH1 0x40 DUP14 ADD MSTORE DUP12 DUP3 SUB PUSH1 0x60 DUP14 ADD MSTORE PUSH2 0x1A28 JUMP JUMPDEST SWAP8 PUSH1 0x80 DUP11 ADD MSTORE PUSH1 0xA0 DUP10 ADD MSTORE PUSH2 0x1538 DUP2 PUSH2 0x1A68 JUMP JUMPDEST PUSH1 0xC0 DUP9 ADD MSTORE PUSH1 0xE0 DUP8 ADD MSTORE PUSH2 0x100 DUP7 ADD MSTORE ISZERO ISZERO PUSH2 0x120 DUP6 ADD MSTORE PUSH2 0x140 DUP5 ADD MSTORE PUSH2 0x160 DUP4 ADD MSTORE SUB SWAP1 RETURN JUMPDEST CALLVALUE PUSH2 0x2EF JUMPI PUSH1 0x20 CALLDATASIZE PUSH1 0x3 NOT ADD SLT PUSH2 0x2EF JUMPI PUSH1 0x4 CALLDATALOAD PUSH1 0x0 MSTORE PUSH1 0x3 PUSH1 0x20 MSTORE PUSH2 0x15E9 PUSH1 0x1 PUSH1 0x40 PUSH1 0x0 KECCAK256 PUSH1 0x5 DUP2 ADD SLOAD SWAP1 PUSH2 0x159C PUSH1 0xFF PUSH1 0x6 DUP4 ADD SLOAD AND PUSH2 0x1E5C JUMP JUMPDEST PUSH2 0x15FC DUP5 DUP1 PUSH1 0xA0 SHL SUB PUSH1 0x4 DUP5 ADD SLOAD AND SWAP4 PUSH1 0x8 DUP5 ADD SLOAD SWAP3 PUSH2 0x15D5 PUSH1 0xFF PUSH1 0x9 DUP8 ADD SLOAD AND SWAP6 PUSH2 0x15CE PUSH1 0x40 MLOAD DUP1 SWAP11 DUP2 SWAP4 ADD PUSH2 0x1B0A JUMP JUMPDEST SUB DUP9 PUSH2 0x1BD8 JUMP JUMPDEST PUSH1 0x40 MLOAD SWAP8 DUP9 SWAP8 PUSH1 0xC0 DUP10 MSTORE PUSH1 0xC0 DUP10 ADD SWAP1 PUSH2 0x1A28 JUMP JUMPDEST SWAP2 PUSH1 0x20 DUP9 ADD MSTORE DUP7 DUP3 SUB PUSH1 0x40 DUP9 ADD MSTORE PUSH2 0x1A28 JUMP JUMPDEST SWAP3 PUSH1 0x60 DUP6 ADD MSTORE PUSH1 0x80 DUP5 ADD MSTORE ISZERO ISZERO PUSH1 0xA0 DUP4 ADD MSTORE SUB SWAP1 RETURN JUMPDEST CALLVALUE PUSH2 0x2EF JUMPI PUSH1 0x0 CALLDATASIZE PUSH1 0x3 NOT ADD SLT PUSH2 0x2EF JUMPI PUSH1 0x20 PUSH1 0x7 SLOAD PUSH1 0x40 MLOAD SWAP1 DUP2 MSTORE RETURN JUMPDEST CALLVALUE PUSH2 0x2EF JUMPI PUSH1 0x20 DUP1 PUSH1 0x3 NOT CALLDATASIZE ADD SLT PUSH2 0x2EF JUMPI PUSH1 0x4 CALLDATALOAD PUSH1 0x2 PUSH1 0x1 SLOAD EQ PUSH2 0x1989 JUMPI PUSH1 0x2 PUSH1 0x1 SSTORE PUSH2 0x165C PUSH2 0x1CD3 JUMP JUMPDEST DUP1 PUSH1 0x0 MSTORE PUSH1 0x3 DUP3 MSTORE PUSH1 0x40 PUSH1 0x0 KECCAK256 PUSH1 0xFF PUSH1 0x9 DUP3 ADD SLOAD AND ISZERO PUSH2 0xA37 JUMPI PUSH1 0x8 DUP2 ADD SWAP1 DUP2 SLOAD TIMESTAMP LT PUSH2 0x1977 JUMPI PUSH1 0x5 DUP2 ADD SLOAD PUSH1 0x7 SLOAD DUP1 DUP3 MUL SWAP1 DUP3 DUP3 DIV EQ DUP3 ISZERO OR ISZERO PUSH2 0x2C7 JUMPI PUSH2 0x2710 SWAP1 DIV PUSH2 0x16AA DUP2 DUP4 PUSH2 0x1CF1 JUMP JUMPDEST DUP4 SLOAD PUSH1 0x40 MLOAD PUSH4 0x23B872DD PUSH1 0xE0 SHL DUP2 MSTORE PUSH1 0x1 PUSH1 0x1 PUSH1 0xA0 SHL SUB SWAP2 DUP3 AND PUSH1 0x4 DUP3 ADD MSTORE ADDRESS PUSH1 0x24 DUP3 ADD MSTORE PUSH1 0x44 DUP2 ADD SWAP3 SWAP1 SWAP3 MSTORE SWAP2 PUSH32 0x0 DUP4 AND SWAP2 DUP9 DUP2 PUSH1 0x64 DUP2 PUSH1 0x0 DUP8 GAS CALL SWAP1 DUP2 ISZERO PUSH2 0x1931 JUMPI PUSH1 0x0 SWAP2 PUSH2 0x195A JUMPI JUMPDEST POP ISZERO PUSH2 0x18F2 JUMPI PUSH1 0x4 DUP6 ADD SWAP2 DUP4 DUP4 SLOAD AND SWAP2 PUSH1 0x40 MLOAD DUP11 DUP2 DUP1 PUSH2 0x1759 DUP11 PUSH4 0xA9059CBB PUSH1 0xE0 SHL SWAP9 DUP10 DUP5 MSTORE PUSH1 0x4 DUP5 ADD PUSH1 0x20 SWAP1 SWAP4 SWAP3 SWAP2 SWAP4 PUSH1 0x40 DUP2 ADD SWAP5 PUSH1 0x1 DUP1 PUSH1 0xA0 SHL SUB AND DUP2 MSTORE ADD MSTORE JUMP JUMPDEST SUB DUP2 PUSH1 0x0 DUP8 GAS CALL SWAP1 DUP2 ISZERO PUSH2 0x1931 JUMPI PUSH1 0x0 SWAP2 PUSH2 0x193D JUMPI JUMPDEST POP ISZERO PUSH2 0x18F2 JUMPI DUP10 SWAP2 DUP2 PUSH2 0x18A7 JUMPI JUMPDEST POP POP POP POP DUP6 PUSH1 0x0 MSTORE PUSH1 0x4 DUP8 MSTORE PUSH1 0x40 PUSH1 0x0 KECCAK256 SWAP5 DUP3 DUP3 SLOAD AND PUSH1 0x0 NOT NUMBER ADD SWAP6 NUMBER DUP8 GT PUSH2 0x2C7 JUMPI PUSH1 0x40 MLOAD SWAP7 PUSH2 0x17AD DUP9 PUSH2 0x1BA0 JUMP JUMPDEST DUP10 DUP9 MSTORE DUP11 DUP9 ADD SWAP3 DUP4 MSTORE PUSH1 0x40 DUP9 ADD SWAP8 DUP8 DUP10 MSTORE PUSH1 0x60 DUP2 ADD SWAP10 TIMESTAMP DUP12 MSTORE PUSH1 0x80 DUP3 ADD SWAP3 BLOCKHASH DUP4 MSTORE DUP1 SLOAD PUSH1 0x1 PUSH1 0x40 SHL DUP2 LT ISZERO PUSH2 0x5B7 JUMPI PUSH2 0x17EB SWAP2 PUSH1 0x1 DUP3 ADD DUP2 SSTORE PUSH2 0x1A9E JUMP JUMPDEST SWAP3 SWAP1 SWAP3 PUSH2 0x1891 JUMPI PUSH32 0xCD19BB5D0157296D4F7382AFB5C2308F7413979D682B76AF1D187C8BD78B1C35 SWAP11 PUSH1 0x40 SWAP11 PUSH2 0x187B SWAP7 PUSH1 0x4 SWAP5 MLOAD DUP7 SSTORE DUP11 PUSH1 0x1 DUP8 ADD SWAP2 MLOAD AND PUSH1 0x1 PUSH1 0x1 PUSH1 0x60 SHL SUB PUSH1 0xA0 SHL DUP3 SLOAD AND OR SWAP1 SSTORE MLOAD PUSH1 0x2 DUP6 ADD SSTORE MLOAD PUSH1 0x3 DUP5 ADD SSTORE MLOAD SWAP2 ADD SSTORE PUSH1 0xA DUP2 ADD PUSH2 0x1858 DUP2 SLOAD PUSH2 0x1C95 JUMP JUMPDEST SWAP1 SSTORE PUSH1 0xB DUP2 ADD PUSH2 0x1869 DUP8 DUP3 SLOAD PUSH2 0x1CF1 JUMP JUMPDEST SWAP1 SSTORE PUSH1 0xFF PUSH1 0x6 DUP5 SLOAD SWAP3 ADD SLOAD AND SWAP1 PUSH2 0x1D16 JUMP JUMPDEST SWAP1 SSTORE SLOAD AND SWAP5 DUP3 MLOAD SWAP2 DUP3 MSTORE TIMESTAMP SWAP1 DUP3 ADD MSTORE LOG3 PUSH1 0x1 DUP1 SSTORE STOP JUMPDEST PUSH4 0x4E487B71 PUSH1 0xE0 SHL PUSH1 0x0 MSTORE PUSH1 0x0 PUSH1 0x4 MSTORE PUSH1 0x24 PUSH1 0x0 REVERT JUMPDEST PUSH1 0x8 SLOAD PUSH1 0x40 MLOAD SWAP5 DUP6 MSTORE DUP7 AND PUSH1 0x1 PUSH1 0x1 PUSH1 0xA0 SHL SUB AND PUSH1 0x4 DUP6 ADD MSTORE PUSH1 0x24 DUP5 ADD SWAP2 SWAP1 SWAP2 MSTORE DUP3 SWAP1 PUSH1 0x44 SWAP1 DUP3 SWAP1 PUSH1 0x0 SWAP1 GAS CALL SWAP1 DUP2 ISZERO PUSH2 0x1931 JUMPI PUSH1 0x0 SWAP2 PUSH2 0x1904 JUMPI JUMPDEST POP ISZERO PUSH2 0x18F2 JUMPI DUP8 DUP8 DUP2 DUP1 PUSH2 0x177D JUMP JUMPDEST PUSH1 0x40 MLOAD PUSH4 0x12171D83 PUSH1 0xE3 SHL DUP2 MSTORE PUSH1 0x4 SWAP1 REVERT JUMPDEST PUSH2 0x1924 SWAP2 POP DUP9 RETURNDATASIZE DUP11 GT PUSH2 0x192A JUMPI JUMPDEST PUSH2 0x191C DUP2 DUP4 PUSH2 0x1BD8 JUMP JUMPDEST DUP2 ADD SWAP1 PUSH2 0x1CFE JUMP JUMPDEST DUP9 PUSH2 0x18E3 JUMP JUMPDEST POP RETURNDATASIZE PUSH2 0x1912 JUMP JUMPDEST PUSH1 0x40 MLOAD RETURNDATASIZE PUSH1 0x0 DUP3 RETURNDATACOPY RETURNDATASIZE SWAP1 REVERT JUMPDEST PUSH2 0x1954 SWAP2 POP DUP12 RETURNDATASIZE DUP14 GT PUSH2 0x192A JUMPI PUSH2 0x191C DUP2 DUP4 PUSH2 0x1BD8 JUMP JUMPDEST DUP12 PUSH2 0x176F JUMP JUMPDEST PUSH2 0x1971 SWAP2 POP DUP10 RETURNDATASIZE DUP12 GT PUSH2 0x192A JUMPI PUSH2 0x191C DUP2 DUP4 PUSH2 0x1BD8 JUMP JUMPDEST DUP10 PUSH2 0x1715 JUMP JUMPDEST PUSH1 0x40 MLOAD PUSH4 0xE65E6833 PUSH1 0xE0 SHL DUP2 MSTORE PUSH1 0x4 SWAP1 REVERT JUMPDEST PUSH1 0x40 MLOAD PUSH4 0x3EE5AEB5 PUSH1 0xE0 SHL DUP2 MSTORE PUSH1 0x4 SWAP1 REVERT JUMPDEST CALLVALUE PUSH2 0x2EF JUMPI PUSH1 0x0 CALLDATASIZE PUSH1 0x3 NOT ADD SLT PUSH2 0x2EF JUMPI PUSH1 0x40 MLOAD PUSH32 0x0 PUSH1 0x1 PUSH1 0x1 PUSH1 0xA0 SHL SUB AND DUP2 MSTORE PUSH1 0x20 SWAP1 RETURN JUMPDEST CALLVALUE PUSH2 0x2EF JUMPI PUSH1 0x20 CALLDATASIZE PUSH1 0x3 NOT ADD SLT PUSH2 0x2EF JUMPI PUSH1 0x20 SWAP1 PUSH1 0x4 CALLDATALOAD PUSH1 0x0 MSTORE PUSH1 0x3 DUP3 MSTORE PUSH1 0x40 PUSH1 0x0 KECCAK256 PUSH1 0xFF PUSH1 0x9 DUP3 ADD SLOAD AND SWAP1 DUP2 PUSH2 0x1A19 JUMPI JUMPDEST POP ISZERO ISZERO DUP2 MSTORE RETURN JUMPDEST PUSH1 0x8 SWAP2 POP ADD SLOAD TIMESTAMP LT ISZERO DUP4 PUSH2 0x1A12 JUMP JUMPDEST SWAP2 SWAP1 DUP3 MLOAD SWAP3 DUP4 DUP3 MSTORE PUSH1 0x0 JUMPDEST DUP5 DUP2 LT PUSH2 0x1A54 JUMPI POP POP DUP3 PUSH1 0x0 PUSH1 0x20 DUP1 SWAP5 SWAP6 DUP5 ADD ADD MSTORE PUSH1 0x1F DUP1 NOT SWAP2 ADD AND ADD ADD SWAP1 JUMP JUMPDEST PUSH1 0x20 DUP2 DUP4 ADD DUP2 ADD MLOAD DUP5 DUP4 ADD DUP3 ADD MSTORE ADD PUSH2 0x1A33 JUMP JUMPDEST PUSH1 0x6 GT ISZERO PUSH2 0x1A72 JUMPI JUMP JUMPDEST PUSH4 0x4E487B71 PUSH1 0xE0 SHL PUSH1 0x0 MSTORE PUSH1 0x21 PUSH1 0x4 MSTORE PUSH1 0x24 PUSH1 0x0 REVERT JUMPDEST PUSH1 0x4 CALLDATALOAD SWAP1 PUSH1 0x1 PUSH1 0x1 PUSH1 0xA0 SHL SUB DUP3 AND DUP3 SUB PUSH2 0x2EF JUMPI JUMP JUMPDEST DUP1 SLOAD DUP3 LT ISZERO PUSH2 0x1ABA JUMPI PUSH1 0x0 MSTORE PUSH1 0x5 PUSH1 0x20 PUSH1 0x0 KECCAK256 SWAP2 MUL ADD SWAP1 PUSH1 0x0 SWAP1 JUMP JUMPDEST PUSH4 0x4E487B71 PUSH1 0xE0 SHL PUSH1 0x0 MSTORE PUSH1 0x32 PUSH1 0x4 MSTORE PUSH1 0x24 PUSH1 0x0 REVERT JUMPDEST SWAP1 PUSH1 0x1 DUP3 DUP2 SHR SWAP3 AND DUP1 ISZERO PUSH2 0x1B00 JUMPI JUMPDEST PUSH1 0x20 DUP4 LT EQ PUSH2 0x1AEA JUMPI JUMP JUMPDEST PUSH4 0x4E487B71 PUSH1 0xE0 SHL PUSH1 0x0 MSTORE PUSH1 0x22 PUSH1 0x4 MSTORE PUSH1 0x24 PUSH1 0x0 REVERT JUMPDEST SWAP2 PUSH1 0x7F AND SWAP2 PUSH2 0x1ADF JUMP JUMPDEST SWAP1 PUSH1 0x0 SWAP3 SWAP2 DUP1 SLOAD SWAP2 PUSH2 0x1B1B DUP4 PUSH2 0x1AD0 JUMP JUMPDEST SWAP2 DUP3 DUP3 MSTORE PUSH1 0x1 SWAP4 DUP5 DUP2 AND SWAP1 DUP2 PUSH1 0x0 EQ PUSH2 0x1B7D JUMPI POP PUSH1 0x1 EQ PUSH2 0x1B3D JUMPI JUMPDEST POP POP POP POP JUMP JUMPDEST SWAP1 SWAP2 SWAP4 SWAP5 POP PUSH1 0x0 MSTORE PUSH1 0x20 SWAP3 DUP4 PUSH1 0x0 KECCAK256 SWAP3 DUP5 PUSH1 0x0 SWAP5 JUMPDEST DUP4 DUP7 LT PUSH2 0x1B69 JUMPI POP POP POP POP ADD ADD SWAP1 CODESIZE DUP1 DUP1 DUP1 PUSH2 0x1B37 JUMP JUMPDEST DUP1 SLOAD DUP6 DUP8 ADD DUP4 ADD MSTORE SWAP5 ADD SWAP4 DUP6 SWAP1 DUP3 ADD PUSH2 0x1B52 JUMP JUMPDEST SWAP3 SWAP5 POP POP POP PUSH1 0x20 SWAP4 SWAP5 POP PUSH1 0xFF NOT AND DUP4 DUP4 ADD MSTORE ISZERO ISZERO PUSH1 0x5 SHL ADD ADD SWAP1 CODESIZE DUP1 DUP1 DUP1 PUSH2 0x1B37 JUMP JUMPDEST PUSH1 0xA0 DUP2 ADD SWAP1 DUP2 LT PUSH8 0xFFFFFFFFFFFFFFFF DUP3 GT OR PUSH2 0x5B7 JUMPI PUSH1 0x40 MSTORE JUMP JUMPDEST PUSH1 0x40 DUP2 ADD SWAP1 DUP2 LT PUSH8 0xFFFFFFFFFFFFFFFF DUP3 GT OR PUSH2 0x5B7 JUMPI PUSH1 0x40 MSTORE JUMP JUMPDEST SWAP1 PUSH1 0x1F DUP1 NOT SWAP2 ADD AND DUP2 ADD SWAP1 DUP2 LT PUSH8 0xFFFFFFFFFFFFFFFF DUP3 GT OR PUSH2 0x5B7 JUMPI PUSH1 0x40 MSTORE JUMP JUMPDEST DUP1 SLOAD DUP3 LT ISZERO PUSH2 0x1ABA JUMPI PUSH1 0x0 MSTORE PUSH1 0x20 PUSH1 0x0 KECCAK256 ADD SWAP1 PUSH1 0x0 SWAP1 JUMP JUMPDEST DUP2 PUSH1 0x1F DUP3 ADD SLT ISZERO PUSH2 0x2EF JUMPI DUP1 CALLDATALOAD SWAP1 PUSH8 0xFFFFFFFFFFFFFFFF DUP3 GT PUSH2 0x5B7 JUMPI PUSH1 0x40 MLOAD SWAP3 PUSH2 0x1C47 PUSH1 0x1F DUP5 ADD PUSH1 0x1F NOT AND PUSH1 0x20 ADD DUP6 PUSH2 0x1BD8 JUMP JUMPDEST DUP3 DUP5 MSTORE PUSH1 0x20 DUP4 DUP4 ADD ADD GT PUSH2 0x2EF JUMPI DUP2 PUSH1 0x0 SWAP3 PUSH1 0x20 DUP1 SWAP4 ADD DUP4 DUP7 ADD CALLDATACOPY DUP4 ADD ADD MSTORE SWAP1 JUMP JUMPDEST PUSH1 0x0 SLOAD PUSH1 0x1 PUSH1 0x1 PUSH1 0xA0 SHL SUB AND CALLER SUB PUSH2 0x1C7D JUMPI JUMP JUMPDEST PUSH1 0x40 MLOAD PUSH4 0x118CDAA7 PUSH1 0xE0 SHL DUP2 MSTORE CALLER PUSH1 0x4 DUP3 ADD MSTORE PUSH1 0x24 SWAP1 REVERT JUMPDEST PUSH1 0x0 NOT DUP2 EQ PUSH2 0x2C7 JUMPI PUSH1 0x1 ADD SWAP1 JUMP JUMPDEST DUP2 DUP2 LT PUSH2 0x1CAF JUMPI POP POP JUMP JUMPDEST PUSH1 0x0 DUP2 SSTORE PUSH1 0x1 ADD PUSH2 0x1CA4 JUMP JUMPDEST SWAP1 PUSH2 0x1CC5 DUP2 PUSH2 0x1A68 JUMP JUMPDEST PUSH1 0xFF DUP1 NOT DUP4 SLOAD AND SWAP2 AND OR SWAP1 SSTORE JUMP JUMPDEST PUSH1 0xFF PUSH1 0x2 SLOAD AND PUSH2 0x1CDF JUMPI JUMP JUMPDEST PUSH1 0x40 MLOAD PUSH4 0xD93C0665 PUSH1 0xE0 SHL DUP2 MSTORE PUSH1 0x4 SWAP1 REVERT JUMPDEST SWAP2 SWAP1 DUP3 ADD DUP1 SWAP3 GT PUSH2 0x2C7 JUMPI JUMP JUMPDEST SWAP1 DUP2 PUSH1 0x20 SWAP2 SUB SLT PUSH2 0x2EF JUMPI MLOAD DUP1 ISZERO ISZERO DUP2 SUB PUSH2 0x2EF JUMPI SWAP1 JUMP JUMPDEST SWAP1 PUSH2 0x1D20 DUP2 PUSH2 0x1A68 JUMP JUMPDEST DUP1 PUSH2 0x1D36 JUMPI POP PUSH3 0x15180 DUP2 ADD DUP1 SWAP2 GT PUSH2 0x2C7 JUMPI SWAP1 JUMP JUMPDEST PUSH2 0x1D3F DUP2 PUSH2 0x1A68 JUMP JUMPDEST PUSH1 0x1 DUP2 SUB PUSH2 0x1D58 JUMPI POP PUSH3 0x93A80 DUP2 ADD DUP1 SWAP2 GT PUSH2 0x2C7 JUMPI SWAP1 JUMP JUMPDEST PUSH2 0x1D61 DUP2 PUSH2 0x1A68 JUMP JUMPDEST PUSH1 0x2 DUP2 SUB PUSH2 0x1D7A JUMPI POP PUSH3 0x127500 DUP2 ADD DUP1 SWAP2 GT PUSH2 0x2C7 JUMPI SWAP1 JUMP JUMPDEST PUSH2 0x1D83 DUP2 PUSH2 0x1A68 JUMP JUMPDEST PUSH1 0x3 DUP2 SUB PUSH2 0x1D9C JUMPI POP PUSH3 0x278D00 DUP2 ADD DUP1 SWAP2 GT PUSH2 0x2C7 JUMPI SWAP1 JUMP JUMPDEST PUSH2 0x1DA5 DUP2 PUSH2 0x1A68 JUMP JUMPDEST PUSH1 0x4 DUP2 SUB PUSH2 0x1DBE JUMPI POP PUSH3 0x76A700 DUP2 ADD DUP1 SWAP2 GT PUSH2 0x2C7 JUMPI SWAP1 JUMP JUMPDEST DUP1 PUSH2 0x1DCA PUSH1 0x5 SWAP3 PUSH2 0x1A68 JUMP JUMPDEST EQ PUSH2 0x1DDF JUMPI PUSH3 0x278D00 DUP2 ADD DUP1 SWAP2 GT PUSH2 0x2C7 JUMPI SWAP1 JUMP JUMPDEST PUSH4 0x1E13380 DUP2 ADD DUP1 SWAP2 GT PUSH2 0x2C7 JUMPI SWAP1 JUMP JUMPDEST PUSH2 0x1DFA DUP2 SLOAD PUSH2 0x1AD0 JUMP JUMPDEST SWAP1 DUP2 PUSH2 0x1E04 JUMPI POP POP JUMP JUMPDEST DUP2 PUSH1 0x1F PUSH1 0x0 SWAP4 GT PUSH1 0x1 EQ PUSH2 0x1E16 JUMPI POP SSTORE JUMP JUMPDEST SWAP1 DUP1 DUP4 SWAP2 DUP3 MSTORE PUSH2 0x1E35 PUSH1 0x1F PUSH1 0x20 DUP5 KECCAK256 SWAP5 ADD PUSH1 0x5 SHR DUP5 ADD PUSH1 0x1 DUP6 ADD PUSH2 0x1CA4 JUMP JUMPDEST SSTORE SSTORE JUMP JUMPDEST PUSH1 0x40 MLOAD SWAP1 PUSH2 0x1E46 DUP3 PUSH2 0x1BBC JUMP JUMPDEST PUSH1 0x7 DUP3 MSTORE PUSH7 0x6D6F6E74686C79 PUSH1 0xC8 SHL PUSH1 0x20 DUP4 ADD MSTORE JUMP JUMPDEST PUSH2 0x1E65 DUP2 PUSH2 0x1A68 JUMP JUMPDEST DUP1 ISZERO PUSH2 0x1F65 JUMPI PUSH2 0x1E74 DUP2 PUSH2 0x1A68 JUMP JUMPDEST PUSH1 0x1 DUP2 EQ PUSH2 0x1F42 JUMPI PUSH2 0x1E85 DUP2 PUSH2 0x1A68 JUMP JUMPDEST PUSH1 0x2 DUP2 EQ PUSH2 0x1F1C JUMPI PUSH2 0x1E96 DUP2 PUSH2 0x1A68 JUMP JUMPDEST PUSH1 0x3 DUP2 EQ PUSH2 0x1F13 JUMPI PUSH2 0x1EA7 DUP2 PUSH2 0x1A68 JUMP JUMPDEST PUSH1 0x4 DUP2 EQ PUSH2 0x1EED JUMPI DUP1 PUSH2 0x1EBB PUSH1 0x5 SWAP3 PUSH2 0x1A68 JUMP JUMPDEST EQ PUSH2 0x1ECB JUMPI PUSH2 0x1EC8 PUSH2 0x1E39 JUMP JUMPDEST SWAP1 JUMP JUMPDEST PUSH1 0x40 MLOAD PUSH2 0x1ED7 DUP2 PUSH2 0x1BBC JUMP JUMPDEST PUSH1 0x6 DUP2 MSTORE PUSH6 0x796561726C79 PUSH1 0xD0 SHL PUSH1 0x20 DUP3 ADD MSTORE SWAP1 JUMP JUMPDEST POP PUSH1 0x40 MLOAD PUSH2 0x1EFA DUP2 PUSH2 0x1BBC JUMP JUMPDEST PUSH1 0x9 DUP2 MSTORE PUSH9 0x717561727465726C79 PUSH1 0xB8 SHL PUSH1 0x20 DUP3 ADD MSTORE SWAP1 JUMP JUMPDEST POP PUSH2 0x1EC8 PUSH2 0x1E39 JUMP JUMPDEST POP PUSH1 0x40 MLOAD PUSH2 0x1F29 DUP2 PUSH2 0x1BBC JUMP JUMPDEST PUSH1 0x9 DUP2 MSTORE PUSH9 0x62692D7765656B6C79 PUSH1 0xB8 SHL PUSH1 0x20 DUP3 ADD MSTORE SWAP1 JUMP JUMPDEST POP PUSH1 0x40 MLOAD PUSH2 0x1F4F DUP2 PUSH2 0x1BBC JUMP JUMPDEST PUSH1 0x6 DUP2 MSTORE PUSH6 0x7765656B6C79 PUSH1 0xD0 SHL PUSH1 0x20 DUP3 ADD MSTORE SWAP1 JUMP JUMPDEST POP PUSH1 0x40 MLOAD PUSH2 0x1F72 DUP2 PUSH2 0x1BBC JUMP JUMPDEST PUSH1 0x5 DUP2 MSTORE PUSH5 0x6461696C79 PUSH1 0xD8 SHL PUSH1 0x20 DUP3 ADD MSTORE SWAP1 JUMP INVALID LOG2 PUSH5 0x6970667358 0x22 SLT KECCAK256 PUSH6 0x669DE3DCF34F MOD 0xEA 0xA9 0xEB 0x5C DIV 0xA8 0x1F 0x4A 0xD5 JUMP EQ LT 0xD5 DUP7 DELEGATECALL MSIZE SELFDESTRUCT 0xA5 NUMBER SWAP8 0xCA 0xAB 0xDA DUP6 PUSH5 0x736F6C6343 STOP ADDMOD EQ STOP CALLER "
        },
        "methodIdentifiers": {
          "agentCounter()": "67c7ba39",
          "agentPayments(uint256,uint256)": "49392ab1",
          "agents(uint256)": "513856c8",
          "cancelAgent(uint256)": "f78dd241",
          "createAgent(string,uint8,string,address,uint256,uint8,uint256)": "8ac05be2",
          "executePayment(uint256)": "162a0cf8",
          "feeCollector()": "c415b95c",
          "getAgent(uint256)": "2de5aaf7",
          "getAgentPayments(uint256)": "ba4704ff",
          "getAgentSummary(uint256)": "2bd4fd00",
          "getUserAgents(address)": "3d46519d",
          "isAgentReadyForExecution(uint256)": "01a7c7ed",
          "owner()": "8da5cb5b",
          "pause()": "8456cb59",
          "pauseAgent(uint256)": "6ac18987",
          "paused()": "5c975abb",
          "platformFee()": "26232a2e",
          "renounceOwnership()": "715018a6",
          "resumeAgent(uint256)": "bf7c7d32",
          "transferOwnership(address)": "f2fde38b",
          "unpause()": "3f4ba83a",
          "updateAgent(uint256,string,string,uint256,uint8,address,uint256)": "95b5636b",
          "updateFeeCollector(address)": "d2c35ce8",
          "updatePlatformFee(uint256)": "aa0b5988",
          "usdcToken()": "11eac855",
          "userAgents(address,uint256)": "51ca9ff9"
        }
      }
    }
  }
}